{
  "_format": "hh-sol-artifact-1",
  "contractName": "Market",
  "sourceName": "contracts/Market.sol",
  "abi": [
    {
      "inputs": [
        {
          "internalType": "contract IERC20",
          "name": "_baseToken",
          "type": "address"
        },
        {
          "internalType": "contract IERC20",
          "name": "_token",
          "type": "address"
        },
        {
          "internalType": "uint256",
          "name": "_liquidityFee",
          "type": "uint256"
        },
        {
          "internalType": "string",
          "name": "name",
          "type": "string"
        },
        {
          "internalType": "string",
          "name": "symbol",
          "type": "string"
        }
      ],
      "stateMutability": "nonpayable",
      "type": "constructor"
    },
    {
      "anonymous": false,
      "inputs": [
        {
          "indexed": true,
          "internalType": "address",
          "name": "owner",
          "type": "address"
        },
        {
          "indexed": true,
          "internalType": "address",
          "name": "spender",
          "type": "address"
        },
        {
          "indexed": false,
          "internalType": "uint256",
          "name": "value",
          "type": "uint256"
        }
      ],
      "name": "Approval",
      "type": "event"
    },
    {
      "anonymous": false,
      "inputs": [
        {
          "indexed": true,
          "internalType": "address",
          "name": "from",
          "type": "address"
        },
        {
          "indexed": true,
          "internalType": "address",
          "name": "to",
          "type": "address"
        },
        {
          "indexed": false,
          "internalType": "uint256",
          "name": "value",
          "type": "uint256"
        }
      ],
      "name": "Transfer",
      "type": "event"
    },
    {
      "inputs": [
        {
          "internalType": "uint256",
          "name": "inputAmount",
          "type": "uint256"
        }
      ],
      "name": "addLiquidity",
      "outputs": [],
      "stateMutability": "nonpayable",
      "type": "function"
    },
    {
      "inputs": [
        {
          "internalType": "address",
          "name": "owner",
          "type": "address"
        },
        {
          "internalType": "address",
          "name": "spender",
          "type": "address"
        }
      ],
      "name": "allowance",
      "outputs": [
        {
          "internalType": "uint256",
          "name": "",
          "type": "uint256"
        }
      ],
      "stateMutability": "view",
      "type": "function"
    },
    {
      "inputs": [
        {
          "internalType": "address",
          "name": "spender",
          "type": "address"
        },
        {
          "internalType": "uint256",
          "name": "amount",
          "type": "uint256"
        }
      ],
      "name": "approve",
      "outputs": [
        {
          "internalType": "bool",
          "name": "",
          "type": "bool"
        }
      ],
      "stateMutability": "nonpayable",
      "type": "function"
    },
    {
      "inputs": [
        {
          "internalType": "address",
          "name": "account",
          "type": "address"
        }
      ],
      "name": "balanceOf",
      "outputs": [
        {
          "internalType": "uint256",
          "name": "",
          "type": "uint256"
        }
      ],
      "stateMutability": "view",
      "type": "function"
    },
    {
      "inputs": [],
      "name": "baseToken",
      "outputs": [
        {
          "internalType": "contract IERC20",
          "name": "",
          "type": "address"
        }
      ],
      "stateMutability": "view",
      "type": "function"
    },
    {
      "inputs": [
        {
          "internalType": "uint256",
          "name": "inputAmount",
          "type": "uint256"
        }
      ],
      "name": "buy",
      "outputs": [],
      "stateMutability": "nonpayable",
      "type": "function"
    },
    {
      "inputs": [
        {
          "internalType": "uint256",
          "name": "initialBaseTokenAmount",
          "type": "uint256"
        },
        {
          "internalType": "uint256",
          "name": "initialTokenAmount",
          "type": "uint256"
        }
      ],
      "name": "createMarket",
      "outputs": [],
      "stateMutability": "nonpayable",
      "type": "function"
    },
    {
      "inputs": [],
      "name": "decimals",
      "outputs": [
        {
          "internalType": "uint8",
          "name": "",
          "type": "uint8"
        }
      ],
      "stateMutability": "view",
      "type": "function"
    },
    {
      "inputs": [
        {
          "internalType": "address",
          "name": "spender",
          "type": "address"
        },
        {
          "internalType": "uint256",
          "name": "subtractedValue",
          "type": "uint256"
        }
      ],
      "name": "decreaseAllowance",
      "outputs": [
        {
          "internalType": "bool",
          "name": "",
          "type": "bool"
        }
      ],
      "stateMutability": "nonpayable",
      "type": "function"
    },
    {
      "inputs": [
        {
          "internalType": "address",
          "name": "spender",
          "type": "address"
        },
        {
          "internalType": "uint256",
          "name": "addedValue",
          "type": "uint256"
        }
      ],
      "name": "increaseAllowance",
      "outputs": [
        {
          "internalType": "bool",
          "name": "",
          "type": "bool"
        }
      ],
      "stateMutability": "nonpayable",
      "type": "function"
    },
    {
      "inputs": [],
      "name": "name",
      "outputs": [
        {
          "internalType": "string",
          "name": "",
          "type": "string"
        }
      ],
      "stateMutability": "view",
      "type": "function"
    },
    {
      "inputs": [
        {
          "internalType": "uint256",
          "name": "percentageToBurn",
          "type": "uint256"
        }
      ],
      "name": "removeLiquidity",
      "outputs": [],
      "stateMutability": "nonpayable",
      "type": "function"
    },
    {
      "inputs": [
        {
          "internalType": "uint256",
          "name": "inputAmount",
          "type": "uint256"
        }
      ],
      "name": "sell",
      "outputs": [],
      "stateMutability": "nonpayable",
      "type": "function"
    },
    {
      "inputs": [],
      "name": "symbol",
      "outputs": [
        {
          "internalType": "string",
          "name": "",
          "type": "string"
        }
      ],
      "stateMutability": "view",
      "type": "function"
    },
    {
      "inputs": [],
      "name": "token",
      "outputs": [
        {
          "internalType": "contract IERC20",
          "name": "",
          "type": "address"
        }
      ],
      "stateMutability": "view",
      "type": "function"
    },
    {
      "inputs": [],
      "name": "totalSupply",
      "outputs": [
        {
          "internalType": "uint256",
          "name": "",
          "type": "uint256"
        }
      ],
      "stateMutability": "view",
      "type": "function"
    },
    {
      "inputs": [
        {
          "internalType": "address",
          "name": "recipient",
          "type": "address"
        },
        {
          "internalType": "uint256",
          "name": "amount",
          "type": "uint256"
        }
      ],
      "name": "transfer",
      "outputs": [
        {
          "internalType": "bool",
          "name": "",
          "type": "bool"
        }
      ],
      "stateMutability": "nonpayable",
      "type": "function"
    },
    {
      "inputs": [
        {
          "internalType": "address",
          "name": "sender",
          "type": "address"
        },
        {
          "internalType": "address",
          "name": "recipient",
          "type": "address"
        },
        {
          "internalType": "uint256",
          "name": "amount",
          "type": "uint256"
        }
      ],
      "name": "transferFrom",
      "outputs": [
        {
          "internalType": "bool",
          "name": "",
          "type": "bool"
        }
      ],
      "stateMutability": "nonpayable",
      "type": "function"
    }
  ],
  "bytecode": "0x60a06040523480156200001157600080fd5b506040516200329338038062003293833981810160405281019062000037919062000252565b818181600390805190602001906200005192919062000102565b5080600490805190602001906200006a92919062000102565b50505084600560006101000a81548173ffffffffffffffffffffffffffffffffffffffff021916908373ffffffffffffffffffffffffffffffffffffffff16021790555083600660006101000a81548173ffffffffffffffffffffffffffffffffffffffff021916908373ffffffffffffffffffffffffffffffffffffffff16021790555082608081815250505050505050620004fc565b8280546200011090620003ed565b90600052602060002090601f01602090048101928262000134576000855562000180565b82601f106200014f57805160ff191683800117855562000180565b8280016001018555821562000180579182015b828111156200017f57825182559160200191906001019062000162565b5b5090506200018f919062000193565b5090565b5b80821115620001ae57600081600090555060010162000194565b5090565b6000620001c9620001c3846200032f565b62000306565b905082815260208101848484011115620001e257600080fd5b620001ef848285620003b7565b509392505050565b6000815190506200020881620004c8565b92915050565b600082601f8301126200022057600080fd5b815162000232848260208601620001b2565b91505092915050565b6000815190506200024c81620004e2565b92915050565b600080600080600060a086880312156200026b57600080fd5b60006200027b88828901620001f7565b95505060206200028e88828901620001f7565b9450506040620002a1888289016200023b565b935050606086015167ffffffffffffffff811115620002bf57600080fd5b620002cd888289016200020e565b925050608086015167ffffffffffffffff811115620002eb57600080fd5b620002f9888289016200020e565b9150509295509295909350565b60006200031262000325565b905062000320828262000423565b919050565b6000604051905090565b600067ffffffffffffffff8211156200034d576200034c62000488565b5b6200035882620004b7565b9050602081019050919050565b600062000372826200038d565b9050919050565b6000620003868262000365565b9050919050565b600073ffffffffffffffffffffffffffffffffffffffff82169050919050565b6000819050919050565b60005b83811015620003d7578082015181840152602081019050620003ba565b83811115620003e7576000848401525b50505050565b600060028204905060018216806200040657607f821691505b602082108114156200041d576200041c62000459565b5b50919050565b6200042e82620004b7565b810181811067ffffffffffffffff8211171562000450576200044f62000488565b5b80604052505050565b7f4e487b7100000000000000000000000000000000000000000000000000000000600052602260045260246000fd5b7f4e487b7100000000000000000000000000000000000000000000000000000000600052604160045260246000fd5b6000601f19601f8301169050919050565b620004d38162000379565b8114620004df57600080fd5b50565b620004ed81620003ad565b8114620004f957600080fd5b50565b608051612d7b620005186000396000611c450152612d7b6000f3fe608060405234801561001057600080fd5b50600436106101165760003560e01c80639c8f9f23116100a2578063c7604fec11610071578063c7604fec14610309578063d96a094a14610325578063dd62ed3e14610341578063e4849b3214610371578063fc0c546a1461038d57610116565b80639c8f9f231461026f578063a457c2d71461028b578063a9059cbb146102bb578063c55dae63146102eb57610116565b8063313ce567116100e9578063313ce567146101b757806339509351146101d557806351c6590a1461020557806370a082311461022157806395d89b411461025157610116565b806306fdde031461011b578063095ea7b31461013957806318160ddd1461016957806323b872dd14610187575b600080fd5b6101236103ab565b604051610130919061248e565b60405180910390f35b610153600480360381019061014e9190612057565b61043d565b6040516101609190612458565b60405180910390f35b61017161045b565b60405161017e9190612650565b60405180910390f35b6101a1600480360381019061019c9190612008565b610465565b6040516101ae9190612458565b60405180910390f35b6101bf610566565b6040516101cc919061266b565b60405180910390f35b6101ef60048036038101906101ea9190612057565b61056f565b6040516101fc9190612458565b60405180910390f35b61021f600480360381019061021a91906120bc565b61061b565b005b61023b60048036038101906102369190611fa3565b6108df565b6040516102489190612650565b60405180910390f35b610259610927565b604051610266919061248e565b60405180910390f35b610289600480360381019061028491906120bc565b6109b9565b005b6102a560048036038101906102a09190612057565b610c24565b6040516102b29190612458565b60405180910390f35b6102d560048036038101906102d09190612057565b610d18565b6040516102e29190612458565b60405180910390f35b6102f3610d36565b6040516103009190612473565b60405180910390f35b610323600480360381019061031e919061210e565b610d5c565b005b61033f600480360381019061033a91906120bc565b610ebf565b005b61035b60048036038101906103569190611fcc565b6110cf565b6040516103689190612650565b60405180910390f35b61038b600480360381019061038691906120bc565b611156565b005b610395611366565b6040516103a29190612473565b60405180910390f35b6060600380546103ba90612879565b80601f01602080910402602001604051908101604052809291908181526020018280546103e690612879565b80156104335780601f1061040857610100808354040283529160200191610433565b820191906000526020600020905b81548152906001019060200180831161041657829003601f168201915b5050505050905090565b600061045161044a61138c565b8484611394565b6001905092915050565b6000600254905090565b600061047284848461155f565b6000600160008673ffffffffffffffffffffffffffffffffffffffff1673ffffffffffffffffffffffffffffffffffffffff16815260200190815260200160002060006104bd61138c565b73ffffffffffffffffffffffffffffffffffffffff1673ffffffffffffffffffffffffffffffffffffffff1681526020019081526020016000205490508281101561053d576040517f08c379a000000000000000000000000000000000000000000000000000000000815260040161053490612550565b60405180910390fd5b61055a8561054961138c565b85846105559190612799565b611394565b60019150509392505050565b60006012905090565b600061061161057c61138c565b84846001600061058a61138c565b73ffffffffffffffffffffffffffffffffffffffff1673ffffffffffffffffffffffffffffffffffffffff16815260200190815260200160002060008873ffffffffffffffffffffffffffffffffffffffff1673ffffffffffffffffffffffffffffffffffffffff1681526020019081526020016000205461060c91906126b8565b611394565b6001905092915050565b6106e0336106db8361062b61045b565b600660009054906101000a900473ffffffffffffffffffffffffffffffffffffffff1673ffffffffffffffffffffffffffffffffffffffff166370a08231306040518263ffffffff1660e01b815260040161068691906123dd565b60206040518083038186803b15801561069e57600080fd5b505afa1580156106b2573d6000803e3d6000fd5b505050506040513d601f19601f820116820180604052508101906106d691906120e5565b6117de565b611800565b61088d333061084484600560009054906101000a900473ffffffffffffffffffffffffffffffffffffffff1673ffffffffffffffffffffffffffffffffffffffff166370a08231306040518263ffffffff1660e01b815260040161074491906123dd565b60206040518083038186803b15801561075c57600080fd5b505afa158015610770573d6000803e3d6000fd5b505050506040513d601f19601f8201168201806040525081019061079491906120e5565b600660009054906101000a900473ffffffffffffffffffffffffffffffffffffffff1673ffffffffffffffffffffffffffffffffffffffff166370a08231306040518263ffffffff1660e01b81526004016107ef91906123dd565b60206040518083038186803b15801561080757600080fd5b505afa15801561081b573d6000803e3d6000fd5b505050506040513d601f19601f8201168201806040525081019061083f91906120e5565b6117de565b600560009054906101000a900473ffffffffffffffffffffffffffffffffffffffff1673ffffffffffffffffffffffffffffffffffffffff16611954909392919063ffffffff16565b6108dc333083600660009054906101000a900473ffffffffffffffffffffffffffffffffffffffff1673ffffffffffffffffffffffffffffffffffffffff16611954909392919063ffffffff16565b50565b60008060008373ffffffffffffffffffffffffffffffffffffffff1673ffffffffffffffffffffffffffffffffffffffff168152602001908152602001600020549050919050565b60606004805461093690612879565b80601f016020809104026020016040519081016040528092919081815260200182805461096290612879565b80156109af5780601f10610984576101008083540402835291602001916109af565b820191906000526020600020905b81548152906001019060200180831161099257829003601f168201915b5050505050905090565b610adb33610a93600560009054906101000a900473ffffffffffffffffffffffffffffffffffffffff1673ffffffffffffffffffffffffffffffffffffffff166370a08231306040518263ffffffff1660e01b8152600401610a1b91906123dd565b60206040518083038186803b158015610a3357600080fd5b505afa158015610a47573d6000803e3d6000fd5b505050506040513d601f19601f82011682018060405250810190610a6b91906120e5565b610a86610a77336108df565b86670de0b6b3a76400006117de565b610a8e61045b565b6117de565b600560009054906101000a900473ffffffffffffffffffffffffffffffffffffffff1673ffffffffffffffffffffffffffffffffffffffff166119dd9092919063ffffffff16565b610bfd33610bb5600660009054906101000a900473ffffffffffffffffffffffffffffffffffffffff1673ffffffffffffffffffffffffffffffffffffffff166370a08231306040518263ffffffff1660e01b8152600401610b3d91906123dd565b60206040518083038186803b158015610b5557600080fd5b505afa158015610b69573d6000803e3d6000fd5b505050506040513d601f19601f82011682018060405250810190610b8d91906120e5565b610ba8610b99336108df565b86670de0b6b3a76400006117de565b610bb061045b565b6117de565b600660009054906101000a900473ffffffffffffffffffffffffffffffffffffffff1673ffffffffffffffffffffffffffffffffffffffff166119dd9092919063ffffffff16565b610c2133610c1c610c0d336108df565b84670de0b6b3a76400006117de565b611a63565b50565b60008060016000610c3361138c565b73ffffffffffffffffffffffffffffffffffffffff1673ffffffffffffffffffffffffffffffffffffffff16815260200190815260200160002060008573ffffffffffffffffffffffffffffffffffffffff1673ffffffffffffffffffffffffffffffffffffffff16815260200190815260200160002054905082811015610cf0576040517f08c379a0000000000000000000000000000000000000000000000000000000008152600401610ce790612610565b60405180910390fd5b610d0d610cfb61138c565b858584610d089190612799565b611394565b600191505092915050565b6000610d2c610d2561138c565b848461155f565b6001905092915050565b600560009054906101000a900473ffffffffffffffffffffffffffffffffffffffff1681565b6000600660009054906101000a900473ffffffffffffffffffffffffffffffffffffffff1673ffffffffffffffffffffffffffffffffffffffff166370a08231306040518263ffffffff1660e01b8152600401610db991906123dd565b60206040518083038186803b158015610dd157600080fd5b505afa158015610de5573d6000803e3d6000fd5b505050506040513d601f19601f82011682018060405250810190610e0991906120e5565b14610e1357600080fd5b610e62333084600560009054906101000a900473ffffffffffffffffffffffffffffffffffffffff1673ffffffffffffffffffffffffffffffffffffffff16611954909392919063ffffffff16565b610eb1333083600660009054906101000a900473ffffffffffffffffffffffffffffffffffffffff1673ffffffffffffffffffffffffffffffffffffffff16611954909392919063ffffffff16565b610ebb3382611800565b5050565b61107d33611035600560009054906101000a900473ffffffffffffffffffffffffffffffffffffffff1673ffffffffffffffffffffffffffffffffffffffff166370a08231306040518263ffffffff1660e01b8152600401610f2191906123dd565b60206040518083038186803b158015610f3957600080fd5b505afa158015610f4d573d6000803e3d6000fd5b505050506040513d601f19601f82011682018060405250810190610f7191906120e5565b600660009054906101000a900473ffffffffffffffffffffffffffffffffffffffff1673ffffffffffffffffffffffffffffffffffffffff166370a08231306040518263ffffffff1660e01b8152600401610fcc91906123dd565b60206040518083038186803b158015610fe457600080fd5b505afa158015610ff8573d6000803e3d6000fd5b505050506040513d601f19601f8201168201806040525081019061101c91906120e5565b61102586611c37565b866110309190612799565b611c94565b600660009054906101000a900473ffffffffffffffffffffffffffffffffffffffff1673ffffffffffffffffffffffffffffffffffffffff166119dd9092919063ffffffff16565b6110cc333083600560009054906101000a900473ffffffffffffffffffffffffffffffffffffffff1673ffffffffffffffffffffffffffffffffffffffff16611954909392919063ffffffff16565b50565b6000600160008473ffffffffffffffffffffffffffffffffffffffff1673ffffffffffffffffffffffffffffffffffffffff16815260200190815260200160002060008373ffffffffffffffffffffffffffffffffffffffff1673ffffffffffffffffffffffffffffffffffffffff16815260200190815260200160002054905092915050565b611314336112cc600660009054906101000a900473ffffffffffffffffffffffffffffffffffffffff1673ffffffffffffffffffffffffffffffffffffffff166370a08231306040518263ffffffff1660e01b81526004016111b891906123dd565b60206040518083038186803b1580156111d057600080fd5b505afa1580156111e4573d6000803e3d6000fd5b505050506040513d601f19601f8201168201806040525081019061120891906120e5565b600560009054906101000a900473ffffffffffffffffffffffffffffffffffffffff1673ffffffffffffffffffffffffffffffffffffffff166370a08231306040518263ffffffff1660e01b815260040161126391906123dd565b60206040518083038186803b15801561127b57600080fd5b505afa15801561128f573d6000803e3d6000fd5b505050506040513d601f19601f820116820180604052508101906112b391906120e5565b6112bc86611c37565b866112c79190612799565b611c94565b600560009054906101000a900473ffffffffffffffffffffffffffffffffffffffff1673ffffffffffffffffffffffffffffffffffffffff166119dd9092919063ffffffff16565b611363333083600660009054906101000a900473ffffffffffffffffffffffffffffffffffffffff1673ffffffffffffffffffffffffffffffffffffffff16611954909392919063ffffffff16565b50565b600660009054906101000a900473ffffffffffffffffffffffffffffffffffffffff1681565b600033905090565b600073ffffffffffffffffffffffffffffffffffffffff168373ffffffffffffffffffffffffffffffffffffffff161415611404576040517f08c379a00000000000000000000000000000000000000000000000000000000081526004016113fb906125b0565b60405180910390fd5b600073ffffffffffffffffffffffffffffffffffffffff168273ffffffffffffffffffffffffffffffffffffffff161415611474576040517f08c379a000000000000000000000000000000000000000000000000000000000815260040161146b906124f0565b60405180910390fd5b80600160008573ffffffffffffffffffffffffffffffffffffffff1673ffffffffffffffffffffffffffffffffffffffff16815260200190815260200160002060008473ffffffffffffffffffffffffffffffffffffffff1673ffffffffffffffffffffffffffffffffffffffff168152602001908152602001600020819055508173ffffffffffffffffffffffffffffffffffffffff168373ffffffffffffffffffffffffffffffffffffffff167f8c5be1e5ebec7d5bd14f71427d1e84f3dd0314c0f7b2291e5b200ac8c7c3b925836040516115529190612650565b60405180910390a3505050565b600073ffffffffffffffffffffffffffffffffffffffff168373ffffffffffffffffffffffffffffffffffffffff1614156115cf576040517f08c379a00000000000000000000000000000000000000000000000000000000081526004016115c690612590565b60405180910390fd5b600073ffffffffffffffffffffffffffffffffffffffff168273ffffffffffffffffffffffffffffffffffffffff16141561163f576040517f08c379a0000000000000000000000000000000000000000000000000000000008152600401611636906124b0565b60405180910390fd5b61164a838383611cdd565b60008060008573ffffffffffffffffffffffffffffffffffffffff1673ffffffffffffffffffffffffffffffffffffffff168152602001908152602001600020549050818110156116d0576040517f08c379a00000000000000000000000000000000000000000000000000000000081526004016116c790612510565b60405180910390fd5b81816116dc9190612799565b6000808673ffffffffffffffffffffffffffffffffffffffff1673ffffffffffffffffffffffffffffffffffffffff16815260200190815260200160002081905550816000808573ffffffffffffffffffffffffffffffffffffffff1673ffffffffffffffffffffffffffffffffffffffff168152602001908152602001600020600082825461176c91906126b8565b925050819055508273ffffffffffffffffffffffffffffffffffffffff168473ffffffffffffffffffffffffffffffffffffffff167fddf252ad1be2c89b69c2b068fc378daa952ba7f163c4a11628f55a4df523b3ef846040516117d09190612650565b60405180910390a350505050565b60008183856117ed919061273f565b6117f7919061270e565b90509392505050565b600073ffffffffffffffffffffffffffffffffffffffff168273ffffffffffffffffffffffffffffffffffffffff161415611870576040517f08c379a000000000000000000000000000000000000000000000000000000000815260040161186790612630565b60405180910390fd5b61187c60008383611cdd565b806002600082825461188e91906126b8565b92505081905550806000808473ffffffffffffffffffffffffffffffffffffffff1673ffffffffffffffffffffffffffffffffffffffff16815260200190815260200160002060008282546118e391906126b8565b925050819055508173ffffffffffffffffffffffffffffffffffffffff16600073ffffffffffffffffffffffffffffffffffffffff167fddf252ad1be2c89b69c2b068fc378daa952ba7f163c4a11628f55a4df523b3ef836040516119489190612650565b60405180910390a35050565b6119d7846323b872dd60e01b858585604051602401611975939291906123f8565b604051602081830303815290604052907bffffffffffffffffffffffffffffffffffffffffffffffffffffffff19166020820180517bffffffffffffffffffffffffffffffffffffffffffffffffffffffff8381831617835250505050611ce2565b50505050565b611a5e8363a9059cbb60e01b84846040516024016119fc92919061242f565b604051602081830303815290604052907bffffffffffffffffffffffffffffffffffffffffffffffffffffffff19166020820180517bffffffffffffffffffffffffffffffffffffffffffffffffffffffff8381831617835250505050611ce2565b505050565b600073ffffffffffffffffffffffffffffffffffffffff168273ffffffffffffffffffffffffffffffffffffffff161415611ad3576040517f08c379a0000000000000000000000000000000000000000000000000000000008152600401611aca90612570565b60405180910390fd5b611adf82600083611cdd565b60008060008473ffffffffffffffffffffffffffffffffffffffff1673ffffffffffffffffffffffffffffffffffffffff16815260200190815260200160002054905081811015611b65576040517f08c379a0000000000000000000000000000000000000000000000000000000008152600401611b5c906124d0565b60405180910390fd5b8181611b719190612799565b6000808573ffffffffffffffffffffffffffffffffffffffff1673ffffffffffffffffffffffffffffffffffffffff168152602001908152602001600020819055508160026000828254611bc59190612799565b92505081905550600073ffffffffffffffffffffffffffffffffffffffff168373ffffffffffffffffffffffffffffffffffffffff167fddf252ad1be2c89b69c2b068fc378daa952ba7f163c4a11628f55a4df523b3ef84604051611c2a9190612650565b60405180910390a3505050565b600080670de0b6b3a76400007f000000000000000000000000000000000000000000000000000000000000000084611c6f919061273f565b611c79919061270e565b905060008114611c895780611c8c565b60015b915050919050565b6000808285611ca391906126b8565b905060008486611cb3919061273f565b905060008282611cc3919061270e565b90508086611cd19190612799565b93505050509392505050565b505050565b6000611d44826040518060400160405280602081526020017f5361666545524332303a206c6f772d6c6576656c2063616c6c206661696c65648152508573ffffffffffffffffffffffffffffffffffffffff16611da99092919063ffffffff16565b9050600081511115611da45780806020019051810190611d649190612093565b611da3576040517f08c379a0000000000000000000000000000000000000000000000000000000008152600401611d9a906125f0565b60405180910390fd5b5b505050565b6060611db88484600085611dc1565b90509392505050565b606082471015611e06576040517f08c379a0000000000000000000000000000000000000000000000000000000008152600401611dfd90612530565b60405180910390fd5b611e0f85611ed5565b611e4e576040517f08c379a0000000000000000000000000000000000000000000000000000000008152600401611e45906125d0565b60405180910390fd5b6000808673ffffffffffffffffffffffffffffffffffffffff168587604051611e7791906123c6565b60006040518083038185875af1925050503d8060008114611eb4576040519150601f19603f3d011682016040523d82523d6000602084013e611eb9565b606091505b5091509150611ec9828286611ee8565b92505050949350505050565b600080823b905060008111915050919050565b60608315611ef857829050611f48565b600083511115611f0b5782518084602001fd5b816040517f08c379a0000000000000000000000000000000000000000000000000000000008152600401611f3f919061248e565b60405180910390fd5b9392505050565b600081359050611f5e81612d00565b92915050565b600081519050611f7381612d17565b92915050565b600081359050611f8881612d2e565b92915050565b600081519050611f9d81612d2e565b92915050565b600060208284031215611fb557600080fd5b6000611fc384828501611f4f565b91505092915050565b60008060408385031215611fdf57600080fd5b6000611fed85828601611f4f565b9250506020611ffe85828601611f4f565b9150509250929050565b60008060006060848603121561201d57600080fd5b600061202b86828701611f4f565b935050602061203c86828701611f4f565b925050604061204d86828701611f79565b9150509250925092565b6000806040838503121561206a57600080fd5b600061207885828601611f4f565b925050602061208985828601611f79565b9150509250929050565b6000602082840312156120a557600080fd5b60006120b384828501611f64565b91505092915050565b6000602082840312156120ce57600080fd5b60006120dc84828501611f79565b91505092915050565b6000602082840312156120f757600080fd5b600061210584828501611f8e565b91505092915050565b6000806040838503121561212157600080fd5b600061212f85828601611f79565b925050602061214085828601611f79565b9150509250929050565b612153816127cd565b82525050565b612162816127df565b82525050565b600061217382612686565b61217d818561269c565b935061218d818560208601612846565b80840191505092915050565b6121a281612822565b82525050565b60006121b382612691565b6121bd81856126a7565b93506121cd818560208601612846565b6121d681612938565b840191505092915050565b60006121ee6023836126a7565b91506121f982612949565b604082019050919050565b60006122116022836126a7565b915061221c82612998565b604082019050919050565b60006122346022836126a7565b915061223f826129e7565b604082019050919050565b60006122576026836126a7565b915061226282612a36565b604082019050919050565b600061227a6026836126a7565b915061228582612a85565b604082019050919050565b600061229d6028836126a7565b91506122a882612ad4565b604082019050919050565b60006122c06021836126a7565b91506122cb82612b23565b604082019050919050565b60006122e36025836126a7565b91506122ee82612b72565b604082019050919050565b60006123066024836126a7565b915061231182612bc1565b604082019050919050565b6000612329601d836126a7565b915061233482612c10565b602082019050919050565b600061234c602a836126a7565b915061235782612c39565b604082019050919050565b600061236f6025836126a7565b915061237a82612c88565b604082019050919050565b6000612392601f836126a7565b915061239d82612cd7565b602082019050919050565b6123b18161280b565b82525050565b6123c081612815565b82525050565b60006123d28284612168565b915081905092915050565b60006020820190506123f2600083018461214a565b92915050565b600060608201905061240d600083018661214a565b61241a602083018561214a565b61242760408301846123a8565b949350505050565b6000604082019050612444600083018561214a565b61245160208301846123a8565b9392505050565b600060208201905061246d6000830184612159565b92915050565b60006020820190506124886000830184612199565b92915050565b600060208201905081810360008301526124a881846121a8565b905092915050565b600060208201905081810360008301526124c9816121e1565b9050919050565b600060208201905081810360008301526124e981612204565b9050919050565b6000602082019050818103600083015261250981612227565b9050919050565b600060208201905081810360008301526125298161224a565b9050919050565b600060208201905081810360008301526125498161226d565b9050919050565b6000602082019050818103600083015261256981612290565b9050919050565b60006020820190508181036000830152612589816122b3565b9050919050565b600060208201905081810360008301526125a9816122d6565b9050919050565b600060208201905081810360008301526125c9816122f9565b9050919050565b600060208201905081810360008301526125e98161231c565b9050919050565b600060208201905081810360008301526126098161233f565b9050919050565b6000602082019050818103600083015261262981612362565b9050919050565b6000602082019050818103600083015261264981612385565b9050919050565b600060208201905061266560008301846123a8565b92915050565b600060208201905061268060008301846123b7565b92915050565b600081519050919050565b600081519050919050565b600081905092915050565b600082825260208201905092915050565b60006126c38261280b565b91506126ce8361280b565b9250827fffffffffffffffffffffffffffffffffffffffffffffffffffffffffffffffff03821115612703576127026128ab565b5b828201905092915050565b60006127198261280b565b91506127248361280b565b925082612734576127336128da565b5b828204905092915050565b600061274a8261280b565b91506127558361280b565b9250817fffffffffffffffffffffffffffffffffffffffffffffffffffffffffffffffff048311821515161561278e5761278d6128ab565b5b828202905092915050565b60006127a48261280b565b91506127af8361280b565b9250828210156127c2576127c16128ab565b5b828203905092915050565b60006127d8826127eb565b9050919050565b60008115159050919050565b600073ffffffffffffffffffffffffffffffffffffffff82169050919050565b6000819050919050565b600060ff82169050919050565b600061282d82612834565b9050919050565b600061283f826127eb565b9050919050565b60005b83811015612864578082015181840152602081019050612849565b83811115612873576000848401525b50505050565b6000600282049050600182168061289157607f821691505b602082108114156128a5576128a4612909565b5b50919050565b7f4e487b7100000000000000000000000000000000000000000000000000000000600052601160045260246000fd5b7f4e487b7100000000000000000000000000000000000000000000000000000000600052601260045260246000fd5b7f4e487b7100000000000000000000000000000000000000000000000000000000600052602260045260246000fd5b6000601f19601f8301169050919050565b7f45524332303a207472616e7366657220746f20746865207a65726f206164647260008201527f6573730000000000000000000000000000000000000000000000000000000000602082015250565b7f45524332303a206275726e20616d6f756e7420657863656564732062616c616e60008201527f6365000000000000000000000000000000000000000000000000000000000000602082015250565b7f45524332303a20617070726f766520746f20746865207a65726f20616464726560008201527f7373000000000000000000000000000000000000000000000000000000000000602082015250565b7f45524332303a207472616e7366657220616d6f756e742065786365656473206260008201527f616c616e63650000000000000000000000000000000000000000000000000000602082015250565b7f416464726573733a20696e73756666696369656e742062616c616e636520666f60008201527f722063616c6c0000000000000000000000000000000000000000000000000000602082015250565b7f45524332303a207472616e7366657220616d6f756e742065786365656473206160008201527f6c6c6f77616e6365000000000000000000000000000000000000000000000000602082015250565b7f45524332303a206275726e2066726f6d20746865207a65726f2061646472657360008201527f7300000000000000000000000000000000000000000000000000000000000000602082015250565b7f45524332303a207472616e736665722066726f6d20746865207a65726f20616460008201527f6472657373000000000000000000000000000000000000000000000000000000602082015250565b7f45524332303a20617070726f76652066726f6d20746865207a65726f2061646460008201527f7265737300000000000000000000000000000000000000000000000000000000602082015250565b7f416464726573733a2063616c6c20746f206e6f6e2d636f6e7472616374000000600082015250565b7f5361666545524332303a204552433230206f7065726174696f6e20646964206e60008201527f6f74207375636365656400000000000000000000000000000000000000000000602082015250565b7f45524332303a2064656372656173656420616c6c6f77616e63652062656c6f7760008201527f207a65726f000000000000000000000000000000000000000000000000000000602082015250565b7f45524332303a206d696e7420746f20746865207a65726f206164647265737300600082015250565b612d09816127cd565b8114612d1457600080fd5b50565b612d20816127df565b8114612d2b57600080fd5b50565b612d378161280b565b8114612d4257600080fd5b5056fea2646970667358221220884b521c1f89e46c0cb72012273b452027a33b7e229d572653d60373efb18d1364736f6c63430008040033",
  "linkReferences": {},
  "deployedLinkReferences": {}
}