{
  "_format": "hh-sol-artifact-1",
  "contractName": "Pool",
  "sourceName": "contracts/Pool.sol",
  "abi": [
    {
      "inputs": [
        {
          "internalType": "contract IERC20",
          "name": "_baseToken",
          "type": "address"
        },
        {
          "internalType": "contract IERC20",
          "name": "_token",
          "type": "address"
        },
        {
          "internalType": "uint256",
          "name": "_liquidityFee",
          "type": "uint256"
        },
        {
          "internalType": "string",
          "name": "name",
          "type": "string"
        },
        {
          "internalType": "string",
          "name": "symbol",
          "type": "string"
        }
      ],
      "stateMutability": "nonpayable",
      "type": "constructor"
    },
    {
      "anonymous": false,
      "inputs": [
        {
          "indexed": true,
          "internalType": "address",
          "name": "owner",
          "type": "address"
        },
        {
          "indexed": true,
          "internalType": "address",
          "name": "spender",
          "type": "address"
        },
        {
          "indexed": false,
          "internalType": "uint256",
          "name": "value",
          "type": "uint256"
        }
      ],
      "name": "Approval",
      "type": "event"
    },
    {
      "anonymous": false,
      "inputs": [
        {
          "indexed": true,
          "internalType": "address",
          "name": "from",
          "type": "address"
        },
        {
          "indexed": true,
          "internalType": "address",
          "name": "to",
          "type": "address"
        },
        {
          "indexed": false,
          "internalType": "uint256",
          "name": "value",
          "type": "uint256"
        }
      ],
      "name": "Transfer",
      "type": "event"
    },
    {
      "inputs": [
        {
          "internalType": "address",
          "name": "owner",
          "type": "address"
        },
        {
          "internalType": "address",
          "name": "spender",
          "type": "address"
        }
      ],
      "name": "allowance",
      "outputs": [
        {
          "internalType": "uint256",
          "name": "",
          "type": "uint256"
        }
      ],
      "stateMutability": "view",
      "type": "function"
    },
    {
      "inputs": [
        {
          "internalType": "address",
          "name": "spender",
          "type": "address"
        },
        {
          "internalType": "uint256",
          "name": "amount",
          "type": "uint256"
        }
      ],
      "name": "approve",
      "outputs": [
        {
          "internalType": "bool",
          "name": "",
          "type": "bool"
        }
      ],
      "stateMutability": "nonpayable",
      "type": "function"
    },
    {
      "inputs": [
        {
          "internalType": "address",
          "name": "account",
          "type": "address"
        }
      ],
      "name": "balanceOf",
      "outputs": [
        {
          "internalType": "uint256",
          "name": "",
          "type": "uint256"
        }
      ],
      "stateMutability": "view",
      "type": "function"
    },
    {
      "inputs": [],
      "name": "baseToken",
      "outputs": [
        {
          "internalType": "contract IERC20",
          "name": "",
          "type": "address"
        }
      ],
      "stateMutability": "view",
      "type": "function"
    },
    {
      "inputs": [
        {
          "internalType": "address",
          "name": "who",
          "type": "address"
        },
        {
          "internalType": "uint256",
          "name": "amount",
          "type": "uint256"
        }
      ],
      "name": "burn",
      "outputs": [],
      "stateMutability": "nonpayable",
      "type": "function"
    },
    {
      "inputs": [],
      "name": "decimals",
      "outputs": [
        {
          "internalType": "uint8",
          "name": "",
          "type": "uint8"
        }
      ],
      "stateMutability": "view",
      "type": "function"
    },
    {
      "inputs": [
        {
          "internalType": "address",
          "name": "spender",
          "type": "address"
        },
        {
          "internalType": "uint256",
          "name": "subtractedValue",
          "type": "uint256"
        }
      ],
      "name": "decreaseAllowance",
      "outputs": [
        {
          "internalType": "bool",
          "name": "",
          "type": "bool"
        }
      ],
      "stateMutability": "nonpayable",
      "type": "function"
    },
    {
      "inputs": [
        {
          "internalType": "address",
          "name": "spender",
          "type": "address"
        },
        {
          "internalType": "uint256",
          "name": "addedValue",
          "type": "uint256"
        }
      ],
      "name": "increaseAllowance",
      "outputs": [
        {
          "internalType": "bool",
          "name": "",
          "type": "bool"
        }
      ],
      "stateMutability": "nonpayable",
      "type": "function"
    },
    {
      "inputs": [],
      "name": "isFarmable",
      "outputs": [
        {
          "internalType": "bool",
          "name": "",
          "type": "bool"
        }
      ],
      "stateMutability": "pure",
      "type": "function"
    },
    {
      "inputs": [],
      "name": "liquidityFee",
      "outputs": [
        {
          "internalType": "uint256",
          "name": "",
          "type": "uint256"
        }
      ],
      "stateMutability": "view",
      "type": "function"
    },
    {
      "inputs": [
        {
          "internalType": "address",
          "name": "to",
          "type": "address"
        },
        {
          "internalType": "uint256",
          "name": "amount",
          "type": "uint256"
        }
      ],
      "name": "mint",
      "outputs": [],
      "stateMutability": "nonpayable",
      "type": "function"
    },
    {
      "inputs": [],
      "name": "name",
      "outputs": [
        {
          "internalType": "string",
          "name": "",
          "type": "string"
        }
      ],
      "stateMutability": "view",
      "type": "function"
    },
    {
      "inputs": [
        {
          "internalType": "contract IERC20",
          "name": "_token",
          "type": "address"
        },
        {
          "internalType": "address",
          "name": "sender",
          "type": "address"
        },
        {
          "internalType": "uint256",
          "name": "amount",
          "type": "uint256"
        }
      ],
      "name": "safeTransfer",
      "outputs": [],
      "stateMutability": "nonpayable",
      "type": "function"
    },
    {
      "inputs": [],
      "name": "symbol",
      "outputs": [
        {
          "internalType": "string",
          "name": "",
          "type": "string"
        }
      ],
      "stateMutability": "view",
      "type": "function"
    },
    {
      "inputs": [],
      "name": "token",
      "outputs": [
        {
          "internalType": "contract IERC20",
          "name": "",
          "type": "address"
        }
      ],
      "stateMutability": "view",
      "type": "function"
    },
    {
      "inputs": [],
      "name": "totalSupply",
      "outputs": [
        {
          "internalType": "uint256",
          "name": "",
          "type": "uint256"
        }
      ],
      "stateMutability": "view",
      "type": "function"
    },
    {
      "inputs": [
        {
          "internalType": "address",
          "name": "recipient",
          "type": "address"
        },
        {
          "internalType": "uint256",
          "name": "amount",
          "type": "uint256"
        }
      ],
      "name": "transfer",
      "outputs": [
        {
          "internalType": "bool",
          "name": "",
          "type": "bool"
        }
      ],
      "stateMutability": "nonpayable",
      "type": "function"
    },
    {
      "inputs": [
        {
          "internalType": "address",
          "name": "sender",
          "type": "address"
        },
        {
          "internalType": "address",
          "name": "recipient",
          "type": "address"
        },
        {
          "internalType": "uint256",
          "name": "amount",
          "type": "uint256"
        }
      ],
      "name": "transferFrom",
      "outputs": [
        {
          "internalType": "bool",
          "name": "",
          "type": "bool"
        }
      ],
      "stateMutability": "nonpayable",
      "type": "function"
    }
  ],
  "bytecode": "0x60a06040523480156200001157600080fd5b506040516200141038038062001410833981016040819052620000349162000223565b8151829082906200004d906003906020850190620000ad565b50805162000063906004906020840190620000ad565b5050600580546001600160a01b03199081163317909155600680546001600160a01b03988916908316179055600780549690971695169490941790945550608052506200030d9050565b828054620000bb90620002ba565b90600052602060002090601f016020900481019282620000df57600085556200012a565b82601f10620000fa57805160ff19168380011785556200012a565b828001600101855582156200012a579182015b828111156200012a5782518255916020019190600101906200010d565b50620001389291506200013c565b5090565b5b808211156200013857600081556001016200013d565b80516001600160a01b03811681146200016b57600080fd5b919050565b600082601f83011262000181578081fd5b81516001600160401b03808211156200019e576200019e620002f7565b604051601f8301601f19908116603f01168101908282118183101715620001c957620001c9620002f7565b81604052838152602092508683858801011115620001e5578485fd5b8491505b83821015620002085785820183015181830184015290820190620001e9565b838211156200021957848385830101525b9695505050505050565b600080600080600060a086880312156200023b578081fd5b620002468662000153565b9450620002566020870162000153565b6040870151606088015191955093506001600160401b03808211156200027a578283fd5b6200028889838a0162000170565b935060808801519150808211156200029e578283fd5b50620002ad8882890162000170565b9150509295509295909350565b600181811c90821680620002cf57607f821691505b60208210811415620002f157634e487b7160e01b600052602260045260246000fd5b50919050565b634e487b7160e01b600052604160045260246000fd5b6080516110e762000329600039600061020e01526110e76000f3fe608060405234801561001057600080fd5b50600436106101365760003560e01c806398118cb4116100b2578063c55dae6311610081578063dd62ed3e11610066578063dd62ed3e146102a7578063f05c09b3146102e0578063fc0c546a146102e757600080fd5b8063c55dae6314610269578063d1660f991461029457600080fd5b806398118cb4146102095780639dc29fac14610230578063a457c2d714610243578063a9059cbb1461025657600080fd5b8063313ce5671161010957806340c10f19116100ee57806340c10f19146101c357806370a08231146101d857806395d89b411461020157600080fd5b8063313ce567146101a157806339509351146101b057600080fd5b806306fdde031461013b578063095ea7b31461015957806318160ddd1461017c57806323b872dd1461018e575b600080fd5b6101436102fa565b6040516101509190610fb6565b60405180910390f35b61016c610167366004610f3b565b61038c565b6040519015158152602001610150565b6002545b604051908152602001610150565b61016c61019c366004610efb565b6103a2565b60405160128152602001610150565b61016c6101be366004610f3b565b61046f565b6101d66101d1366004610f3b565b6104a6565b005b6101806101e6366004610ea7565b6001600160a01b031660009081526020819052604090205490565b6101436104cb565b6101807f000000000000000000000000000000000000000000000000000000000000000081565b6101d661023e366004610f3b565b6104da565b61016c610251366004610f3b565b6104fb565b61016c610264366004610f3b565b6105ae565b60065461027c906001600160a01b031681565b6040516001600160a01b039091168152602001610150565b6101d66102a2366004610f86565b6105bb565b6101806102b5366004610ec3565b6001600160a01b03918216600090815260016020908152604080832093909416825291909152205490565b600061016c565b60075461027c906001600160a01b031681565b60606003805461030990611048565b80601f016020809104026020016040519081016040528092919081815260200182805461033590611048565b80156103825780601f1061035757610100808354040283529160200191610382565b820191906000526020600020905b81548152906001019060200180831161036557829003601f168201915b5050505050905090565b60006103993384846105eb565b50600192915050565b60006103af848484610744565b6001600160a01b03841660009081526001602090815260408083203384529091529020548281101561044e5760405162461bcd60e51b815260206004820152602860248201527f45524332303a207472616e7366657220616d6f756e742065786365656473206160448201527f6c6c6f77616e636500000000000000000000000000000000000000000000000060648201526084015b60405180910390fd5b610462853361045d8685611001565b6105eb565b60019150505b9392505050565b3360008181526001602090815260408083206001600160a01b0387168452909152812054909161039991859061045d908690610fe9565b6005546001600160a01b031633146104bd57600080fd5b6104c78282610965565b5050565b60606004805461030990611048565b6005546001600160a01b031633146104f157600080fd5b6104c78282610a44565b3360009081526001602090815260408083206001600160a01b0386168452909152812054828110156105955760405162461bcd60e51b815260206004820152602560248201527f45524332303a2064656372656173656420616c6c6f77616e63652062656c6f7760448201527f207a65726f0000000000000000000000000000000000000000000000000000006064820152608401610445565b6105a4338561045d8685611001565b5060019392505050565b6000610399338484610744565b6005546001600160a01b031633146105d257600080fd5b6105e66001600160a01b0384168383610bca565b505050565b6001600160a01b0383166106665760405162461bcd60e51b8152602060048201526024808201527f45524332303a20617070726f76652066726f6d20746865207a65726f2061646460448201527f72657373000000000000000000000000000000000000000000000000000000006064820152608401610445565b6001600160a01b0382166106e25760405162461bcd60e51b815260206004820152602260248201527f45524332303a20617070726f766520746f20746865207a65726f20616464726560448201527f73730000000000000000000000000000000000000000000000000000000000006064820152608401610445565b6001600160a01b0383811660008181526001602090815260408083209487168084529482529182902085905590518481527f8c5be1e5ebec7d5bd14f71427d1e84f3dd0314c0f7b2291e5b200ac8c7c3b92591015b60405180910390a3505050565b6001600160a01b0383166107c05760405162461bcd60e51b815260206004820152602560248201527f45524332303a207472616e736665722066726f6d20746865207a65726f20616460448201527f64726573730000000000000000000000000000000000000000000000000000006064820152608401610445565b6001600160a01b03821661083c5760405162461bcd60e51b815260206004820152602360248201527f45524332303a207472616e7366657220746f20746865207a65726f206164647260448201527f65737300000000000000000000000000000000000000000000000000000000006064820152608401610445565b6001600160a01b038316600090815260208190526040902054818110156108cb5760405162461bcd60e51b815260206004820152602660248201527f45524332303a207472616e7366657220616d6f756e742065786365656473206260448201527f616c616e636500000000000000000000000000000000000000000000000000006064820152608401610445565b6108d58282611001565b6001600160a01b03808616600090815260208190526040808220939093559085168152908120805484929061090b908490610fe9565b92505081905550826001600160a01b0316846001600160a01b03167fddf252ad1be2c89b69c2b068fc378daa952ba7f163c4a11628f55a4df523b3ef8460405161095791815260200190565b60405180910390a350505050565b6001600160a01b0382166109bb5760405162461bcd60e51b815260206004820152601f60248201527f45524332303a206d696e7420746f20746865207a65726f2061646472657373006044820152606401610445565b80600260008282546109cd9190610fe9565b90915550506001600160a01b038216600090815260208190526040812080548392906109fa908490610fe9565b90915550506040518181526001600160a01b038316906000907fddf252ad1be2c89b69c2b068fc378daa952ba7f163c4a11628f55a4df523b3ef9060200160405180910390a35050565b6001600160a01b038216610ac05760405162461bcd60e51b815260206004820152602160248201527f45524332303a206275726e2066726f6d20746865207a65726f2061646472657360448201527f73000000000000000000000000000000000000000000000000000000000000006064820152608401610445565b6001600160a01b03821660009081526020819052604090205481811015610b4f5760405162461bcd60e51b815260206004820152602260248201527f45524332303a206275726e20616d6f756e7420657863656564732062616c616e60448201527f63650000000000000000000000000000000000000000000000000000000000006064820152608401610445565b610b598282611001565b6001600160a01b03841660009081526020819052604081209190915560028054849290610b87908490611001565b90915550506040518281526000906001600160a01b038516907fddf252ad1be2c89b69c2b068fc378daa952ba7f163c4a11628f55a4df523b3ef90602001610737565b604080516001600160a01b03848116602483015260448083018590528351808403909101815260649092018352602080830180517bffffffffffffffffffffffffffffffffffffffffffffffffffffffff167fa9059cbb0000000000000000000000000000000000000000000000000000000017905283518085019094528084527f5361666545524332303a206c6f772d6c6576656c2063616c6c206661696c6564908401526105e692869291600091610c88918516908490610d18565b8051909150156105e65780806020019051810190610ca69190610f66565b6105e65760405162461bcd60e51b815260206004820152602a60248201527f5361666545524332303a204552433230206f7065726174696f6e20646964206e60448201527f6f742073756363656564000000000000000000000000000000000000000000006064820152608401610445565b6060610d278484600085610d2f565b949350505050565b606082471015610da75760405162461bcd60e51b815260206004820152602660248201527f416464726573733a20696e73756666696369656e742062616c616e636520666f60448201527f722063616c6c00000000000000000000000000000000000000000000000000006064820152608401610445565b843b610df55760405162461bcd60e51b815260206004820152601d60248201527f416464726573733a2063616c6c20746f206e6f6e2d636f6e74726163740000006044820152606401610445565b600080866001600160a01b03168587604051610e119190610f9a565b60006040518083038185875af1925050503d8060008114610e4e576040519150601f19603f3d011682016040523d82523d6000602084013e610e53565b606091505b5091509150610e63828286610e6e565b979650505050505050565b60608315610e7d575081610468565b825115610e8d5782518084602001fd5b8160405162461bcd60e51b81526004016104459190610fb6565b600060208284031215610eb8578081fd5b813561046881611099565b60008060408385031215610ed5578081fd5b8235610ee081611099565b91506020830135610ef081611099565b809150509250929050565b600080600060608486031215610f0f578081fd5b8335610f1a81611099565b92506020840135610f2a81611099565b929592945050506040919091013590565b60008060408385031215610f4d578182fd5b8235610f5881611099565b946020939093013593505050565b600060208284031215610f77578081fd5b81518015158114610468578182fd5b600080600060608486031215610f0f578283fd5b60008251610fac818460208701611018565b9190910192915050565b6020815260008251806020840152610fd5816040850160208701611018565b601f01601f19169190910160400192915050565b60008219821115610ffc57610ffc611083565b500190565b60008282101561101357611013611083565b500390565b60005b8381101561103357818101518382015260200161101b565b83811115611042576000848401525b50505050565b600181811c9082168061105c57607f821691505b6020821081141561107d57634e487b7160e01b600052602260045260246000fd5b50919050565b634e487b7160e01b600052601160045260246000fd5b6001600160a01b03811681146110ae57600080fd5b5056fea26469706673582212204bd39cde99c3d945a53aeb913115acdc2e55a760efba8f49204d1d8cdeaf8fcb64736f6c63430008040033",
  "linkReferences": {},
  "deployedLinkReferences": {}
}