{
  "_format": "hh-sol-artifact-1",
  "contractName": "Router",
  "sourceName": "contracts/Router.sol",
  "abi": [
    {
      "inputs": [
        {
          "internalType": "contract IERC20",
          "name": "_baseToken",
          "type": "address"
        }
      ],
      "stateMutability": "nonpayable",
      "type": "constructor"
    },
    {
      "inputs": [
        {
          "internalType": "contract Pool",
          "name": "pool",
          "type": "address"
        },
        {
          "internalType": "uint256",
          "name": "inputAmount",
          "type": "uint256"
        }
      ],
      "name": "addLiquidity",
      "outputs": [],
      "stateMutability": "nonpayable",
      "type": "function"
    },
    {
      "inputs": [
        {
          "internalType": "contract Pool",
          "name": "",
          "type": "address"
        }
      ],
      "name": "baseTokenBalances",
      "outputs": [
        {
          "internalType": "uint112",
          "name": "",
          "type": "uint112"
        }
      ],
      "stateMutability": "view",
      "type": "function"
    },
    {
      "inputs": [
        {
          "internalType": "contract Pool",
          "name": "pool",
          "type": "address"
        },
        {
          "internalType": "uint256",
          "name": "inputAmount",
          "type": "uint256"
        }
      ],
      "name": "buy",
      "outputs": [],
      "stateMutability": "nonpayable",
      "type": "function"
    },
    {
      "inputs": [
        {
          "internalType": "contract Pool",
          "name": "pool",
          "type": "address"
        },
        {
          "internalType": "uint256",
          "name": "amount",
          "type": "uint256"
        }
      ],
      "name": "chargeBaseToken",
      "outputs": [],
      "stateMutability": "nonpayable",
      "type": "function"
    },
    {
      "inputs": [
        {
          "internalType": "contract Pool",
          "name": "pool",
          "type": "address"
        },
        {
          "internalType": "uint256",
          "name": "amount",
          "type": "uint256"
        }
      ],
      "name": "chargeToken",
      "outputs": [],
      "stateMutability": "nonpayable",
      "type": "function"
    },
    {
      "inputs": [
        {
          "internalType": "contract Pool",
          "name": "inputPool",
          "type": "address"
        },
        {
          "internalType": "contract Pool",
          "name": "outputPool",
          "type": "address"
        },
        {
          "internalType": "uint256",
          "name": "inputAmount",
          "type": "uint256"
        }
      ],
      "name": "convert",
      "outputs": [],
      "stateMutability": "nonpayable",
      "type": "function"
    },
    {
      "inputs": [
        {
          "internalType": "contract IERC20",
          "name": "token",
          "type": "address"
        },
        {
          "internalType": "uint256",
          "name": "liquidityFee",
          "type": "uint256"
        },
        {
          "internalType": "uint256",
          "name": "initialBaseTokenAmount",
          "type": "uint256"
        },
        {
          "internalType": "uint256",
          "name": "initialTokenAmount",
          "type": "uint256"
        },
        {
          "internalType": "string",
          "name": "name",
          "type": "string"
        },
        {
          "internalType": "string",
          "name": "symbol",
          "type": "string"
        }
      ],
      "name": "createPool",
      "outputs": [],
      "stateMutability": "nonpayable",
      "type": "function"
    },
    {
      "inputs": [
        {
          "internalType": "contract IERC20",
          "name": "token",
          "type": "address"
        },
        {
          "internalType": "uint256",
          "name": "liquidityFee",
          "type": "uint256"
        },
        {
          "internalType": "uint256",
          "name": "initialBaseTokenAmount",
          "type": "uint256"
        },
        {
          "internalType": "uint256",
          "name": "initialTokenAmount",
          "type": "uint256"
        },
        {
          "internalType": "string",
          "name": "name",
          "type": "string"
        },
        {
          "internalType": "string",
          "name": "symbol",
          "type": "string"
        },
        {
          "internalType": "contract Issuable",
          "name": "rewardToken",
          "type": "address"
        }
      ],
      "name": "createYieldFarmablePool",
      "outputs": [],
      "stateMutability": "nonpayable",
      "type": "function"
    },
    {
      "inputs": [],
      "name": "getPoolsLength",
      "outputs": [
        {
          "internalType": "uint256",
          "name": "",
          "type": "uint256"
        }
      ],
      "stateMutability": "view",
      "type": "function"
    },
    {
      "inputs": [
        {
          "internalType": "contract Pool",
          "name": "pool",
          "type": "address"
        },
        {
          "internalType": "uint256",
          "name": "amount",
          "type": "uint256"
        }
      ],
      "name": "payBaseToken",
      "outputs": [],
      "stateMutability": "nonpayable",
      "type": "function"
    },
    {
      "inputs": [
        {
          "internalType": "contract Pool",
          "name": "pool",
          "type": "address"
        },
        {
          "internalType": "uint256",
          "name": "amount",
          "type": "uint256"
        }
      ],
      "name": "payToken",
      "outputs": [],
      "stateMutability": "nonpayable",
      "type": "function"
    },
    {
      "inputs": [
        {
          "internalType": "uint256",
          "name": "",
          "type": "uint256"
        }
      ],
      "name": "pools",
      "outputs": [
        {
          "internalType": "contract Pool",
          "name": "",
          "type": "address"
        }
      ],
      "stateMutability": "view",
      "type": "function"
    },
    {
      "inputs": [
        {
          "internalType": "contract Pool",
          "name": "pool",
          "type": "address"
        },
        {
          "internalType": "uint256",
          "name": "percentageToBurn",
          "type": "uint256"
        }
      ],
      "name": "removeLiquidity",
      "outputs": [],
      "stateMutability": "nonpayable",
      "type": "function"
    },
    {
      "inputs": [
        {
          "internalType": "contract Pool",
          "name": "pool",
          "type": "address"
        },
        {
          "internalType": "uint256",
          "name": "inputAmount",
          "type": "uint256"
        }
      ],
      "name": "sell",
      "outputs": [],
      "stateMutability": "nonpayable",
      "type": "function"
    },
    {
      "inputs": [
        {
          "internalType": "contract Pool",
          "name": "",
          "type": "address"
        }
      ],
      "name": "tokenBalances",
      "outputs": [
        {
          "internalType": "uint256",
          "name": "",
          "type": "uint256"
        }
      ],
      "stateMutability": "view",
      "type": "function"
    },
    {
      "inputs": [
        {
          "internalType": "contract Pool",
          "name": "inputPool",
          "type": "address"
        },
        {
          "internalType": "contract Pool",
          "name": "outputPool",
          "type": "address"
        },
        {
          "internalType": "uint256",
          "name": "amount",
          "type": "uint256"
        }
      ],
      "name": "transferBaseToken",
      "outputs": [],
      "stateMutability": "nonpayable",
      "type": "function"
    }
  ],
  "bytecode": "0x608060405234801561001057600080fd5b506040516144cf3803806144cf83398101604081905261002f91610054565b600080546001600160a01b0319166001600160a01b0392909216919091179055610082565b600060208284031215610065578081fd5b81516001600160a01b038116811461007b578182fd5b9392505050565b61443e806100916000396000f3fe60806040523480156200001157600080fd5b5060043610620001155760003560e01c8063ac4afa3811620000a3578063cff61aac116200006e578063cff61aac1462000288578063dbcaef8b146200029f578063ea197eef14620002b6578063f5b61c9714620002cd57600080fd5b8063ac4afa381462000221578063c75a6a3f1462000251578063cce7ec131462000268578063ce883cdb146200027f57600080fd5b80635668870011620000e4578063566887001462000197578063581a564d14620001ae5780636c197ff514620001f3578063a201ccf6146200020a57600080fd5b806310510ec1146200011a5780631547f4301462000133578063248391ff146200014a578063523fba7f1462000161575b600080fd5b620001316200012b366004620015c5565b620002e4565b005b6200013162000144366004620014b1565b620003a3565b620001316200015b36600462001580565b620004de565b620001846200017236600462001561565b60036020526000908152604090205481565b6040519081526020015b60405180910390f35b62000131620001a8366004620015c5565b62000580565b620001da620001bf36600462001561565b6002602052600090815260409020546001600160701b031681565b6040516001600160701b0390911681526020016200018e565b6200013162000204366004620015c5565b620006f4565b620001316200021b366004620015c5565b62000830565b6200023862000232366004620015f3565b62000b72565b6040516001600160a01b0390911681526020016200018e565b6200013162000262366004620015c5565b62000b9d565b6200013162000279366004620015c5565b62000c12565b60015462000184565b620001316200029936600462001419565b62000c64565b62000131620002b0366004620015c5565b62000d9c565b62000131620002c7366004620015c5565b62000e07565b62000131620002de36600462001580565b62000e76565b620003703382846001600160a01b031663fc0c546a6040518163ffffffff1660e01b815260040160206040518083038186803b1580156200032457600080fd5b505afa15801562000339573d6000803e3d6000fd5b505050506040513d601f19601f820116820180604052508101906200035f9190620013fa565b6001600160a01b0316919062000f1f565b6001600160a01b038216600090815260036020526040812080548392906200039a908490620017ef565b90915550505050565b60008060009054906101000a90046001600160a01b03168888868686604051620003cd906200132d565b620003de96959493929190620016c5565b604051809103906000f080158015620003fb573d6000803e3d6000fd5b5090506200040a818762000b9d565b62000416818662000d9c565b6040516340c10f1960e01b8152336004820152602481018690526001600160a01b038216906340c10f1990604401600060405180830381600087803b1580156200045f57600080fd5b505af115801562000474573d6000803e3d6000fd5b50506001805480820182556000919091527fb10e2d527612073b26eecdfd717e6a320cf44b4afac2b0732d9fcbe2b7fa0cf601805473ffffffffffffffffffffffffffffffffffffffff19166001600160a01b039490941693909317909255505050505050505050565b6001600160a01b0383166000908152600360209081526040808320546002909252822054620005199186916001600160701b03168562000fcf565b905062000527848362000d9c565b6001600160a01b0383166000908152600260209081526040808320546003909252909120546200056d9185916200012b9183916001600160701b03909116908662000fcf565b6200057a84848362000e76565b50505050565b816001600160a01b03166340c10f19336200062984866001600160a01b03166318160ddd6040518163ffffffff1660e01b815260040160206040518083038186803b158015620005cf57600080fd5b505afa158015620005e4573d6000803e3d6000fd5b505050506040513d601f19601f820116820180604052508101906200060a91906200160c565b6001600160a01b038816600090815260036020526040902054620010ac565b6040517fffffffff0000000000000000000000000000000000000000000000000000000060e085901b1681526001600160a01b0390921660048301526024820152604401600060405180830381600087803b1580156200068857600080fd5b505af11580156200069d573d6000803e3d6000fd5b5050506001600160a01b038316600090815260026020908152604080832054600390925290912054620006e492508491620002629185916001600160701b031690620010ac565b620006f0828262000d9c565b5050565b6001600160a01b0382166000908152600360209081526040808320546002909252909120546200074b913391620007379186916001600160701b03168662000fcf565b6000546001600160a01b0316919062000f1f565b6001600160a01b038216600090815260026020526040812080548392906200077e9084906001600160701b031662001738565b92506101000a8154816001600160701b0302191690836001600160701b0316021790555062000370333083856001600160a01b031663fc0c546a6040518163ffffffff1660e01b815260040160206040518083038186803b158015620007e357600080fd5b505afa158015620007f8573d6000803e3d6000fd5b505050506040513d601f19601f820116820180604052508101906200081e9190620013fa565b6001600160a01b0316929190620010d1565b6001600160a01b0382166000818152600260205260408082205490516370a0823160e01b815233600482015291926200095d926001600160701b0390921691620008e291906370a082319060240160206040518083038186803b1580156200089757600080fd5b505afa158015620008ac573d6000803e3d6000fd5b505050506040513d601f19601f82011682018060405250810190620008d291906200160c565b85670de0b6b3a7640000620010ac565b856001600160a01b03166318160ddd6040518163ffffffff1660e01b815260040160206040518083038186803b1580156200091c57600080fd5b505afa15801562000931573d6000803e3d6000fd5b505050506040513d601f19601f820116820180604052508101906200095791906200160c565b620010ac565b90506200096b838262000e07565b6001600160a01b0383166000818152600360205260408082205490516370a0823160e01b8152336004820152919262000a4b9262000a1191906370a082319060240160206040518083038186803b158015620009c657600080fd5b505afa158015620009db573d6000803e3d6000fd5b505050506040513d601f19601f8201168201806040525081019062000a0191906200160c565b86670de0b6b3a7640000620010ac565b866001600160a01b03166318160ddd6040518163ffffffff1660e01b815260040160206040518083038186803b1580156200091c57600080fd5b905062000a598482620002e4565b6040516370a0823160e01b815233600482018190526001600160a01b03861691639dc29fac919062000af49084906370a082319060240160206040518083038186803b15801562000aa957600080fd5b505afa15801562000abe573d6000803e3d6000fd5b505050506040513d601f19601f8201168201806040525081019062000ae491906200160c565b87670de0b6b3a7640000620010ac565b6040517fffffffff0000000000000000000000000000000000000000000000000000000060e085901b1681526001600160a01b0390921660048301526024820152604401600060405180830381600087803b15801562000b5357600080fd5b505af115801562000b68573d6000803e3d6000fd5b5050505050505050565b6001818154811062000b8357600080fd5b6000918252602090912001546001600160a01b0316905081565b60005462000bb7906001600160a01b0316333084620010d1565b6001600160a01b0382166000908152600260205260408120805483929062000bea9084906001600160701b031662001738565b92506101000a8154816001600160701b0302191690836001600160701b031602179055505050565b6001600160a01b03821660009081526002602090815260408083205460039092529091205462000c589184916200012b9183916001600160701b03909116908662000fcf565b620006f0828262000b9d565b60008060009054906101000a90046001600160a01b03168787858560405162000c8d906200133b565b62000c9d95949392919062001671565b604051809103906000f08015801562000cba573d6000803e3d6000fd5b50905062000cc9818662000b9d565b62000cd5818562000d9c565b6040516340c10f1960e01b8152336004820152602481018590526001600160a01b038216906340c10f1990604401600060405180830381600087803b15801562000d1e57600080fd5b505af115801562000d33573d6000803e3d6000fd5b50506001805480820182556000919091527fb10e2d527612073b26eecdfd717e6a320cf44b4afac2b0732d9fcbe2b7fa0cf601805473ffffffffffffffffffffffffffffffffffffffff19166001600160a01b0394909416939093179092555050505050505050565b62000ddd333083856001600160a01b031663fc0c546a6040518163ffffffff1660e01b815260040160206040518083038186803b158015620007e357600080fd5b6001600160a01b038216600090815260036020526040812080548392906200039a90849062001766565b6001600160a01b0382166000908152600260205260408120805483929062000e3a9084906001600160701b0316620017c4565b82546001600160701b039182166101009390930a928302919092021990911617905550600054620006f0906001600160a01b0316338362000f1f565b6001600160a01b0383166000908152600260205260408120805483929062000ea99084906001600160701b0316620017c4565b82546101009290920a6001600160701b038181021990931691831602179091556001600160a01b03841660009081526002602052604081208054859450909262000ef69185911662001738565b92506101000a8154816001600160701b0302191690836001600160701b03160217905550505050565b6040516001600160a01b03831660248201526044810182905262000fca9084907fa9059cbb00000000000000000000000000000000000000000000000000000000906064015b60408051601f198184030181529190526020810180517bffffffffffffffffffffffffffffffffffffffffffffffffffffffff167fffffffff000000000000000000000000000000000000000000000000000000009093169290921790915262001124565b505050565b6000670de0b6b3a7640000856001600160a01b03166398118cb46040518163ffffffff1660e01b815260040160206040518083038186803b1580156200101457600080fd5b505afa15801562001029573d6000803e3d6000fd5b505050506040513d601f19601f820116820180604052508101906200104f91906200160c565b6200105b9084620017a2565b62001067919062001781565b620010739083620017ef565b6200107f908562001766565b6200108b8486620017a2565b62001097919062001781565b620010a39084620017ef565b95945050505050565b600081620010bb8486620017a2565b620010c7919062001781565b90505b9392505050565b6040516001600160a01b03808516602483015283166044820152606481018290526200057a9085907f23b872dd000000000000000000000000000000000000000000000000000000009060840162000f65565b60006200117b826040518060400160405280602081526020017f5361666545524332303a206c6f772d6c6576656c2063616c6c206661696c6564815250856001600160a01b0316620012149092919063ffffffff16565b80519091501562000fca57808060200190518101906200119c9190620013d8565b62000fca5760405162461bcd60e51b815260206004820152602a60248201527f5361666545524332303a204552433230206f7065726174696f6e20646964206e60448201527f6f7420737563636565640000000000000000000000000000000000000000000060648201526084015b60405180910390fd5b6060620010c7848460008585843b620012705760405162461bcd60e51b815260206004820152601d60248201527f416464726573733a2063616c6c20746f206e6f6e2d636f6e747261637400000060448201526064016200120b565b600080866001600160a01b031685876040516200128e919062001653565b60006040518083038185875af1925050503d8060008114620012cd576040519150601f19603f3d011682016040523d82523d6000602084013e620012d2565b606091505b5091509150620012e4828286620012ef565b979650505050505050565b6060831562001300575081620010ca565b825115620013115782518084602001fd5b8160405162461bcd60e51b81526004016200120b919062001723565b61177b806200187e83390190565b6114108062002ff983390190565b600082601f8301126200135a578081fd5b813567ffffffffffffffff808211156200137857620013786200184e565b604051601f8301601f19908116603f01168101908282118183101715620013a357620013a36200184e565b81604052838152866020858801011115620013bc578485fd5b8360208701602083013792830160200193909352509392505050565b600060208284031215620013ea578081fd5b81518015158114620010ca578182fd5b6000602082840312156200140c578081fd5b8151620010ca8162001864565b60008060008060008060c0878903121562001432578182fd5b86356200143f8162001864565b9550602087013594506040870135935060608701359250608087013567ffffffffffffffff8082111562001471578384fd5b6200147f8a838b0162001349565b935060a089013591508082111562001495578283fd5b50620014a489828a0162001349565b9150509295509295509295565b600080600080600080600060e0888a031215620014cc578081fd5b8735620014d98162001864565b9650602088013595506040880135945060608801359350608088013567ffffffffffffffff808211156200150b578283fd5b620015198b838c0162001349565b945060a08a01359150808211156200152f578283fd5b506200153e8a828b0162001349565b92505060c0880135620015518162001864565b8091505092959891949750929550565b60006020828403121562001573578081fd5b8135620010ca8162001864565b60008060006060848603121562001595578283fd5b8335620015a28162001864565b92506020840135620015b48162001864565b929592945050506040919091013590565b60008060408385031215620015d8578182fd5b8235620015e58162001864565b946020939093013593505050565b60006020828403121562001605578081fd5b5035919050565b6000602082840312156200161e578081fd5b5051919050565b600081518084526200163f81602086016020860162001809565b601f01601f19169290920160200192915050565b600082516200166781846020870162001809565b9190910192915050565b60006001600160a01b03808816835280871660208401525084604083015260a06060830152620016a560a083018562001625565b8281036080840152620016b9818562001625565b98975050505050505050565b60006001600160a01b038089168352808816602084015286604084015260c06060840152620016f860c084018762001625565b83810360808501526200170c818762001625565b92505080841660a084015250979650505050505050565b602081526000620010ca602083018462001625565b60006001600160701b038083168185168083038211156200175d576200175d62001838565b01949350505050565b600082198211156200177c576200177c62001838565b500190565b6000826200179d57634e487b7160e01b81526012600452602481fd5b500490565b6000816000190483118215151615620017bf57620017bf62001838565b500290565b60006001600160701b0383811690831681811015620017e757620017e762001838565b039392505050565b60008282101562001804576200180462001838565b500390565b60005b83811015620018265781810151838201526020016200180c565b838111156200057a5750506000910152565b634e487b7160e01b600052601160045260246000fd5b634e487b7160e01b600052604160045260246000fd5b6001600160a01b03811681146200187a57600080fd5b5056fe60a06040523480156200001157600080fd5b506040516200177b3803806200177b833981016040819052620000349162000226565b8585858585858282816003908051906020019062000054929190620000cd565b5080516200006a906004906020840190620000cd565b50504260075550600580546001600160a01b03199081166001600160a01b03938416179091556009805433908316179055600a8054821697831697909717909655600b805490961694169390931790935560805250620003439650505050505050565b828054620000db90620002d7565b90600052602060002090601f016020900481019282620000ff57600085556200014a565b82601f106200011a57805160ff19168380011785556200014a565b828001600101855582156200014a579182015b828111156200014a5782518255916020019190600101906200012d565b50620001589291506200015c565b5090565b5b808211156200015857600081556001016200015d565b600082601f83011262000184578081fd5b81516001600160401b0380821115620001a157620001a162000314565b604051601f8301601f19908116603f01168101908282118183101715620001cc57620001cc62000314565b81604052838152602092508683858801011115620001e8578485fd5b8491505b838210156200020b5785820183015181830184015290820190620001ec565b838211156200021c57848385830101525b9695505050505050565b60008060008060008060c087890312156200023f578182fd5b86516200024c816200032a565b60208801519096506200025f816200032a565b6040880151606089015191965094506001600160401b038082111562000283578384fd5b620002918a838b0162000173565b94506080890151915080821115620002a7578384fd5b50620002b689828a0162000173565b92505060a0870151620002c9816200032a565b809150509295509295509295565b600181811c90821680620002ec57607f821691505b602082108114156200030e57634e487b7160e01b600052602260045260246000fd5b50919050565b634e487b7160e01b600052604160045260246000fd5b6001600160a01b03811681146200034057600080fd5b50565b60805161141c6200035f60003960006102f4015261141c6000f3fe608060405234801561001057600080fd5b50600436106101c45760003560e01c806395d89b41116100f9578063cc15f53811610097578063dd62ed3e11610071578063dd62ed3e146103b0578063f05c09b3146103e9578063f7c618c1146103f0578063fc0c546a1461040357600080fd5b8063cc15f53814610386578063d1660f9914610394578063d32e81a5146103a757600080fd5b8063a457c2d7116100d3578063a457c2d714610329578063a9059cbb1461033c578063aaf5eb681461034f578063c55dae631461035b57600080fd5b806395d89b41146102e757806398118cb4146102ef5780639dc29fac1461031657600080fd5b806340c10f19116101665780636484c4c6116101405780636484c4c61461028d57806370a08231146102955780637e0e5db5146102be57806393920696146102de57600080fd5b806340c10f191461025d5780634641257d14610272578063537bb1371461027a57600080fd5b806318160ddd116101a257806318160ddd1461022057806323b872dd14610228578063313ce5671461023b578063395093511461024a57600080fd5b806306fdde03146101c9578063095ea7b3146101e75780630ca9680d1461020a575b600080fd5b6101d1610416565b6040516101de91906112ac565b60405180910390f35b6101fa6101f5366004611231565b6104a8565b60405190151581526020016101de565b6102126104be565b6040519081526020016101de565b600254610212565b6101fa6102363660046111f1565b6104d3565b604051601281526020016101de565b6101fa610258366004611231565b6105a0565b61027061026b366004611231565b6105d7565b005b6102706105e5565b61021261028836600461119d565b6106a2565b610270610773565b6102126102a336600461119d565b6001600160a01b031660009081526020819052604090205490565b6102126102cc36600461119d565b60086020526000908152604090205481565b61021260065481565b6101d16107d8565b6102127f000000000000000000000000000000000000000000000000000000000000000081565b610270610324366004611231565b6107e7565b6101fa610337366004611231565b6107f1565b6101fa61034a366004611231565b6108a4565b61021264e8d4a5100081565b600a5461036e906001600160a01b031681565b6040516001600160a01b0390911681526020016101de565b670de0b6b3a7640000610212565b6102706103a236600461127c565b6108b1565b61021260075481565b6102126103be3660046111b9565b6001600160a01b03918216600090815260016020908152604080832093909416825291909152205490565b60016101fa565b60055461036e906001600160a01b031681565b600b5461036e906001600160a01b031681565b6060600380546104259061137d565b80601f01602080910402602001604051908101604052809291908181526020018280546104519061137d565b801561049e5780601f106104735761010080835404028352916020019161049e565b820191906000526020600020905b81548152906001019060200180831161048157829003601f168201915b5050505050905090565b60006104b53384846108e1565b50600192915050565b6000600754426104ce9190611336565b905090565b60006104e0848484610a3a565b6001600160a01b03841660009081526001602090815260408083203384529091529020548281101561057f5760405162461bcd60e51b815260206004820152602860248201527f45524332303a207472616e7366657220616d6f756e742065786365656473206160448201527f6c6c6f77616e636500000000000000000000000000000000000000000000000060648201526084015b60405180910390fd5b610593853361058e8685611336565b6108e1565b60019150505b9392505050565b3360008181526001602090815260408083206001600160a01b038716845290915281205490916104b591859061058e9086906112df565b6105e18282610c5b565b5050565b6105ed610773565b60006105f8336106a2565b6005546040517f40c10f19000000000000000000000000000000000000000000000000000000008152336004820152602481018390529192506001600160a01b0316906340c10f1990604401600060405180830381600087803b15801561065e57600080fd5b505af1158015610672573d6000803e3d6000fd5b505033600090815260086020526040812080548594509092506106969084906112df565b90915550504260075550565b60006106ad60025490565b6106b957506000919050565b6001600160a01b038216600090815260086020526040902054600254670de0b6b3a76400006106e66104be565b6001600160a01b0386166000908152602081905260409020546107099190611317565b6107139190611317565b61071d91906112f7565b64e8d4a51000600654610745866001600160a01b031660009081526020819052604090205490565b61074f9190611317565b61075991906112f7565b61076391906112df565b61076d9190611336565b92915050565b600061077e60025490565b11156107d65760025464e8d4a510006107956104be565b6107a790670de0b6b3a7640000611317565b6107b19190611317565b6107bb91906112f7565b600660008282546107cc91906112df565b9091555050426007555b565b6060600480546104259061137d565b6105e18282610d3a565b3360009081526001602090815260408083206001600160a01b03861684529091528120548281101561088b5760405162461bcd60e51b815260206004820152602560248201527f45524332303a2064656372656173656420616c6c6f77616e63652062656c6f7760448201527f207a65726f0000000000000000000000000000000000000000000000000000006064820152608401610576565b61089a338561058e8685611336565b5060019392505050565b60006104b5338484610a3a565b6009546001600160a01b031633146108c857600080fd5b6108dc6001600160a01b0384168383610ec0565b505050565b6001600160a01b03831661095c5760405162461bcd60e51b8152602060048201526024808201527f45524332303a20617070726f76652066726f6d20746865207a65726f2061646460448201527f72657373000000000000000000000000000000000000000000000000000000006064820152608401610576565b6001600160a01b0382166109d85760405162461bcd60e51b815260206004820152602260248201527f45524332303a20617070726f766520746f20746865207a65726f20616464726560448201527f73730000000000000000000000000000000000000000000000000000000000006064820152608401610576565b6001600160a01b0383811660008181526001602090815260408083209487168084529482529182902085905590518481527f8c5be1e5ebec7d5bd14f71427d1e84f3dd0314c0f7b2291e5b200ac8c7c3b92591015b60405180910390a3505050565b6001600160a01b038316610ab65760405162461bcd60e51b815260206004820152602560248201527f45524332303a207472616e736665722066726f6d20746865207a65726f20616460448201527f64726573730000000000000000000000000000000000000000000000000000006064820152608401610576565b6001600160a01b038216610b325760405162461bcd60e51b815260206004820152602360248201527f45524332303a207472616e7366657220746f20746865207a65726f206164647260448201527f65737300000000000000000000000000000000000000000000000000000000006064820152608401610576565b6001600160a01b03831660009081526020819052604090205481811015610bc15760405162461bcd60e51b815260206004820152602660248201527f45524332303a207472616e7366657220616d6f756e742065786365656473206260448201527f616c616e636500000000000000000000000000000000000000000000000000006064820152608401610576565b610bcb8282611336565b6001600160a01b038086166000908152602081905260408082209390935590851681529081208054849290610c019084906112df565b92505081905550826001600160a01b0316846001600160a01b03167fddf252ad1be2c89b69c2b068fc378daa952ba7f163c4a11628f55a4df523b3ef84604051610c4d91815260200190565b60405180910390a350505050565b6001600160a01b038216610cb15760405162461bcd60e51b815260206004820152601f60248201527f45524332303a206d696e7420746f20746865207a65726f2061646472657373006044820152606401610576565b8060026000828254610cc391906112df565b90915550506001600160a01b03821660009081526020819052604081208054839290610cf09084906112df565b90915550506040518181526001600160a01b038316906000907fddf252ad1be2c89b69c2b068fc378daa952ba7f163c4a11628f55a4df523b3ef9060200160405180910390a35050565b6001600160a01b038216610db65760405162461bcd60e51b815260206004820152602160248201527f45524332303a206275726e2066726f6d20746865207a65726f2061646472657360448201527f73000000000000000000000000000000000000000000000000000000000000006064820152608401610576565b6001600160a01b03821660009081526020819052604090205481811015610e455760405162461bcd60e51b815260206004820152602260248201527f45524332303a206275726e20616d6f756e7420657863656564732062616c616e60448201527f63650000000000000000000000000000000000000000000000000000000000006064820152608401610576565b610e4f8282611336565b6001600160a01b03841660009081526020819052604081209190915560028054849290610e7d908490611336565b90915550506040518281526000906001600160a01b038516907fddf252ad1be2c89b69c2b068fc378daa952ba7f163c4a11628f55a4df523b3ef90602001610a2d565b604080516001600160a01b03848116602483015260448083018590528351808403909101815260649092018352602080830180517bffffffffffffffffffffffffffffffffffffffffffffffffffffffff167fa9059cbb0000000000000000000000000000000000000000000000000000000017905283518085019094528084527f5361666545524332303a206c6f772d6c6576656c2063616c6c206661696c6564908401526108dc92869291600091610f7e91851690849061100e565b8051909150156108dc5780806020019051810190610f9c919061125c565b6108dc5760405162461bcd60e51b815260206004820152602a60248201527f5361666545524332303a204552433230206f7065726174696f6e20646964206e60448201527f6f742073756363656564000000000000000000000000000000000000000000006064820152608401610576565b606061101d8484600085611025565b949350505050565b60608247101561109d5760405162461bcd60e51b815260206004820152602660248201527f416464726573733a20696e73756666696369656e742062616c616e636520666f60448201527f722063616c6c00000000000000000000000000000000000000000000000000006064820152608401610576565b843b6110eb5760405162461bcd60e51b815260206004820152601d60248201527f416464726573733a2063616c6c20746f206e6f6e2d636f6e74726163740000006044820152606401610576565b600080866001600160a01b031685876040516111079190611290565b60006040518083038185875af1925050503d8060008114611144576040519150601f19603f3d011682016040523d82523d6000602084013e611149565b606091505b5091509150611159828286611164565b979650505050505050565b60608315611173575081610599565b8251156111835782518084602001fd5b8160405162461bcd60e51b815260040161057691906112ac565b6000602082840312156111ae578081fd5b8135610599816113ce565b600080604083850312156111cb578081fd5b82356111d6816113ce565b915060208301356111e6816113ce565b809150509250929050565b600080600060608486031215611205578081fd5b8335611210816113ce565b92506020840135611220816113ce565b929592945050506040919091013590565b60008060408385031215611243578182fd5b823561124e816113ce565b946020939093013593505050565b60006020828403121561126d578081fd5b81518015158114610599578182fd5b600080600060608486031215611205578283fd5b600082516112a281846020870161134d565b9190910192915050565b60208152600082518060208401526112cb81604085016020870161134d565b601f01601f19169190910160400192915050565b600082198211156112f2576112f26113b8565b500190565b60008261131257634e487b7160e01b81526012600452602481fd5b500490565b6000816000190483118215151615611331576113316113b8565b500290565b600082821015611348576113486113b8565b500390565b60005b83811015611368578181015183820152602001611350565b83811115611377576000848401525b50505050565b600181811c9082168061139157607f821691505b602082108114156113b257634e487b7160e01b600052602260045260246000fd5b50919050565b634e487b7160e01b600052601160045260246000fd5b6001600160a01b03811681146113e357600080fd5b5056fea2646970667358221220e9adc536f913531939e5163b50c7096609da473d987caf470d4d192a213a098864736f6c6343000804003360a06040523480156200001157600080fd5b506040516200141038038062001410833981016040819052620000349162000223565b8151829082906200004d906003906020850190620000ad565b50805162000063906004906020840190620000ad565b5050600580546001600160a01b03199081163317909155600680546001600160a01b03988916908316179055600780549690971695169490941790945550608052506200030d9050565b828054620000bb90620002ba565b90600052602060002090601f016020900481019282620000df57600085556200012a565b82601f10620000fa57805160ff19168380011785556200012a565b828001600101855582156200012a579182015b828111156200012a5782518255916020019190600101906200010d565b50620001389291506200013c565b5090565b5b808211156200013857600081556001016200013d565b80516001600160a01b03811681146200016b57600080fd5b919050565b600082601f83011262000181578081fd5b81516001600160401b03808211156200019e576200019e620002f7565b604051601f8301601f19908116603f01168101908282118183101715620001c957620001c9620002f7565b81604052838152602092508683858801011115620001e5578485fd5b8491505b83821015620002085785820183015181830184015290820190620001e9565b838211156200021957848385830101525b9695505050505050565b600080600080600060a086880312156200023b578081fd5b620002468662000153565b9450620002566020870162000153565b6040870151606088015191955093506001600160401b03808211156200027a578283fd5b6200028889838a0162000170565b935060808801519150808211156200029e578283fd5b50620002ad8882890162000170565b9150509295509295909350565b600181811c90821680620002cf57607f821691505b60208210811415620002f157634e487b7160e01b600052602260045260246000fd5b50919050565b634e487b7160e01b600052604160045260246000fd5b6080516110e762000329600039600061020e01526110e76000f3fe608060405234801561001057600080fd5b50600436106101365760003560e01c806398118cb4116100b2578063c55dae6311610081578063dd62ed3e11610066578063dd62ed3e146102a7578063f05c09b3146102e0578063fc0c546a146102e757600080fd5b8063c55dae6314610269578063d1660f991461029457600080fd5b806398118cb4146102095780639dc29fac14610230578063a457c2d714610243578063a9059cbb1461025657600080fd5b8063313ce5671161010957806340c10f19116100ee57806340c10f19146101c357806370a08231146101d857806395d89b411461020157600080fd5b8063313ce567146101a157806339509351146101b057600080fd5b806306fdde031461013b578063095ea7b31461015957806318160ddd1461017c57806323b872dd1461018e575b600080fd5b6101436102fa565b6040516101509190610fb6565b60405180910390f35b61016c610167366004610f3b565b61038c565b6040519015158152602001610150565b6002545b604051908152602001610150565b61016c61019c366004610efb565b6103a2565b60405160128152602001610150565b61016c6101be366004610f3b565b61046f565b6101d66101d1366004610f3b565b6104a6565b005b6101806101e6366004610ea7565b6001600160a01b031660009081526020819052604090205490565b6101436104cb565b6101807f000000000000000000000000000000000000000000000000000000000000000081565b6101d661023e366004610f3b565b6104da565b61016c610251366004610f3b565b6104fb565b61016c610264366004610f3b565b6105ae565b60065461027c906001600160a01b031681565b6040516001600160a01b039091168152602001610150565b6101d66102a2366004610f86565b6105bb565b6101806102b5366004610ec3565b6001600160a01b03918216600090815260016020908152604080832093909416825291909152205490565b600061016c565b60075461027c906001600160a01b031681565b60606003805461030990611048565b80601f016020809104026020016040519081016040528092919081815260200182805461033590611048565b80156103825780601f1061035757610100808354040283529160200191610382565b820191906000526020600020905b81548152906001019060200180831161036557829003601f168201915b5050505050905090565b60006103993384846105eb565b50600192915050565b60006103af848484610744565b6001600160a01b03841660009081526001602090815260408083203384529091529020548281101561044e5760405162461bcd60e51b815260206004820152602860248201527f45524332303a207472616e7366657220616d6f756e742065786365656473206160448201527f6c6c6f77616e636500000000000000000000000000000000000000000000000060648201526084015b60405180910390fd5b610462853361045d8685611001565b6105eb565b60019150505b9392505050565b3360008181526001602090815260408083206001600160a01b0387168452909152812054909161039991859061045d908690610fe9565b6005546001600160a01b031633146104bd57600080fd5b6104c78282610965565b5050565b60606004805461030990611048565b6005546001600160a01b031633146104f157600080fd5b6104c78282610a44565b3360009081526001602090815260408083206001600160a01b0386168452909152812054828110156105955760405162461bcd60e51b815260206004820152602560248201527f45524332303a2064656372656173656420616c6c6f77616e63652062656c6f7760448201527f207a65726f0000000000000000000000000000000000000000000000000000006064820152608401610445565b6105a4338561045d8685611001565b5060019392505050565b6000610399338484610744565b6005546001600160a01b031633146105d257600080fd5b6105e66001600160a01b0384168383610bca565b505050565b6001600160a01b0383166106665760405162461bcd60e51b8152602060048201526024808201527f45524332303a20617070726f76652066726f6d20746865207a65726f2061646460448201527f72657373000000000000000000000000000000000000000000000000000000006064820152608401610445565b6001600160a01b0382166106e25760405162461bcd60e51b815260206004820152602260248201527f45524332303a20617070726f766520746f20746865207a65726f20616464726560448201527f73730000000000000000000000000000000000000000000000000000000000006064820152608401610445565b6001600160a01b0383811660008181526001602090815260408083209487168084529482529182902085905590518481527f8c5be1e5ebec7d5bd14f71427d1e84f3dd0314c0f7b2291e5b200ac8c7c3b92591015b60405180910390a3505050565b6001600160a01b0383166107c05760405162461bcd60e51b815260206004820152602560248201527f45524332303a207472616e736665722066726f6d20746865207a65726f20616460448201527f64726573730000000000000000000000000000000000000000000000000000006064820152608401610445565b6001600160a01b03821661083c5760405162461bcd60e51b815260206004820152602360248201527f45524332303a207472616e7366657220746f20746865207a65726f206164647260448201527f65737300000000000000000000000000000000000000000000000000000000006064820152608401610445565b6001600160a01b038316600090815260208190526040902054818110156108cb5760405162461bcd60e51b815260206004820152602660248201527f45524332303a207472616e7366657220616d6f756e742065786365656473206260448201527f616c616e636500000000000000000000000000000000000000000000000000006064820152608401610445565b6108d58282611001565b6001600160a01b03808616600090815260208190526040808220939093559085168152908120805484929061090b908490610fe9565b92505081905550826001600160a01b0316846001600160a01b03167fddf252ad1be2c89b69c2b068fc378daa952ba7f163c4a11628f55a4df523b3ef8460405161095791815260200190565b60405180910390a350505050565b6001600160a01b0382166109bb5760405162461bcd60e51b815260206004820152601f60248201527f45524332303a206d696e7420746f20746865207a65726f2061646472657373006044820152606401610445565b80600260008282546109cd9190610fe9565b90915550506001600160a01b038216600090815260208190526040812080548392906109fa908490610fe9565b90915550506040518181526001600160a01b038316906000907fddf252ad1be2c89b69c2b068fc378daa952ba7f163c4a11628f55a4df523b3ef9060200160405180910390a35050565b6001600160a01b038216610ac05760405162461bcd60e51b815260206004820152602160248201527f45524332303a206275726e2066726f6d20746865207a65726f2061646472657360448201527f73000000000000000000000000000000000000000000000000000000000000006064820152608401610445565b6001600160a01b03821660009081526020819052604090205481811015610b4f5760405162461bcd60e51b815260206004820152602260248201527f45524332303a206275726e20616d6f756e7420657863656564732062616c616e60448201527f63650000000000000000000000000000000000000000000000000000000000006064820152608401610445565b610b598282611001565b6001600160a01b03841660009081526020819052604081209190915560028054849290610b87908490611001565b90915550506040518281526000906001600160a01b038516907fddf252ad1be2c89b69c2b068fc378daa952ba7f163c4a11628f55a4df523b3ef90602001610737565b604080516001600160a01b03848116602483015260448083018590528351808403909101815260649092018352602080830180517bffffffffffffffffffffffffffffffffffffffffffffffffffffffff167fa9059cbb0000000000000000000000000000000000000000000000000000000017905283518085019094528084527f5361666545524332303a206c6f772d6c6576656c2063616c6c206661696c6564908401526105e692869291600091610c88918516908490610d18565b8051909150156105e65780806020019051810190610ca69190610f66565b6105e65760405162461bcd60e51b815260206004820152602a60248201527f5361666545524332303a204552433230206f7065726174696f6e20646964206e60448201527f6f742073756363656564000000000000000000000000000000000000000000006064820152608401610445565b6060610d278484600085610d2f565b949350505050565b606082471015610da75760405162461bcd60e51b815260206004820152602660248201527f416464726573733a20696e73756666696369656e742062616c616e636520666f60448201527f722063616c6c00000000000000000000000000000000000000000000000000006064820152608401610445565b843b610df55760405162461bcd60e51b815260206004820152601d60248201527f416464726573733a2063616c6c20746f206e6f6e2d636f6e74726163740000006044820152606401610445565b600080866001600160a01b03168587604051610e119190610f9a565b60006040518083038185875af1925050503d8060008114610e4e576040519150601f19603f3d011682016040523d82523d6000602084013e610e53565b606091505b5091509150610e63828286610e6e565b979650505050505050565b60608315610e7d575081610468565b825115610e8d5782518084602001fd5b8160405162461bcd60e51b81526004016104459190610fb6565b600060208284031215610eb8578081fd5b813561046881611099565b60008060408385031215610ed5578081fd5b8235610ee081611099565b91506020830135610ef081611099565b809150509250929050565b600080600060608486031215610f0f578081fd5b8335610f1a81611099565b92506020840135610f2a81611099565b929592945050506040919091013590565b60008060408385031215610f4d578182fd5b8235610f5881611099565b946020939093013593505050565b600060208284031215610f77578081fd5b81518015158114610468578182fd5b600080600060608486031215610f0f578283fd5b60008251610fac818460208701611018565b9190910192915050565b6020815260008251806020840152610fd5816040850160208701611018565b601f01601f19169190910160400192915050565b60008219821115610ffc57610ffc611083565b500190565b60008282101561101357611013611083565b500390565b60005b8381101561103357818101518382015260200161101b565b83811115611042576000848401525b50505050565b600181811c9082168061105c57607f821691505b6020821081141561107d57634e487b7160e01b600052602260045260246000fd5b50919050565b634e487b7160e01b600052601160045260246000fd5b6001600160a01b03811681146110ae57600080fd5b5056fea2646970667358221220424312f865e4d60163c34388e978295685f9c96dcbf2cd0c237fc31f819e51e164736f6c63430008040033a2646970667358221220c668f8c068edb5603c25d75cdea99f23deaa801d5e9f43a3a6a6297ce4dd2d9464736f6c63430008040033",
  "linkReferences": {},
  "deployedLinkReferences": {}
}