{
  "_format": "hh-sol-artifact-1",
  "contractName": "Router",
  "sourceName": "contracts/Router.sol",
  "abi": [
    {
      "inputs": [
        {
          "internalType": "contract IERC20",
          "name": "_baseToken",
          "type": "address"
        }
      ],
      "stateMutability": "nonpayable",
      "type": "constructor"
    },
    {
      "inputs": [
        {
          "internalType": "contract Pool",
          "name": "pool",
          "type": "address"
        },
        {
          "internalType": "uint256",
          "name": "inputAmount",
          "type": "uint256"
        }
      ],
      "name": "addLiquidity",
      "outputs": [],
      "stateMutability": "nonpayable",
      "type": "function"
    },
    {
      "inputs": [
        {
          "internalType": "contract Pool",
          "name": "",
          "type": "address"
        }
      ],
      "name": "baseTokenBalances",
      "outputs": [
        {
          "internalType": "uint112",
          "name": "",
          "type": "uint112"
        }
      ],
      "stateMutability": "view",
      "type": "function"
    },
    {
      "inputs": [
        {
          "internalType": "contract Pool",
          "name": "pool",
          "type": "address"
        },
        {
          "internalType": "uint256",
          "name": "inputAmount",
          "type": "uint256"
        }
      ],
      "name": "buy",
      "outputs": [],
      "stateMutability": "nonpayable",
      "type": "function"
    },
    {
      "inputs": [
        {
          "internalType": "contract Pool",
          "name": "pool",
          "type": "address"
        },
        {
          "internalType": "uint256",
          "name": "amount",
          "type": "uint256"
        }
      ],
      "name": "chargeBaseToken",
      "outputs": [],
      "stateMutability": "nonpayable",
      "type": "function"
    },
    {
      "inputs": [
        {
          "internalType": "contract Pool",
          "name": "pool",
          "type": "address"
        },
        {
          "internalType": "uint256",
          "name": "amount",
          "type": "uint256"
        }
      ],
      "name": "chargeToken",
      "outputs": [],
      "stateMutability": "nonpayable",
      "type": "function"
    },
    {
      "inputs": [
        {
          "internalType": "contract Pool",
          "name": "inputPool",
          "type": "address"
        },
        {
          "internalType": "contract Pool",
          "name": "outputPool",
          "type": "address"
        },
        {
          "internalType": "uint256",
          "name": "inputAmount",
          "type": "uint256"
        }
      ],
      "name": "convert",
      "outputs": [],
      "stateMutability": "nonpayable",
      "type": "function"
    },
    {
      "inputs": [
        {
          "internalType": "contract IERC20",
          "name": "token",
          "type": "address"
        },
        {
          "internalType": "uint256",
          "name": "liquidityFee",
          "type": "uint256"
        },
        {
          "internalType": "uint256",
          "name": "initialBaseTokenAmount",
          "type": "uint256"
        },
        {
          "internalType": "uint256",
          "name": "initialTokenAmount",
          "type": "uint256"
        },
        {
          "internalType": "string",
          "name": "name",
          "type": "string"
        },
        {
          "internalType": "string",
          "name": "symbol",
          "type": "string"
        }
      ],
      "name": "createPool",
      "outputs": [],
      "stateMutability": "nonpayable",
      "type": "function"
    },
    {
      "inputs": [],
      "name": "getPoolsLength",
      "outputs": [
        {
          "internalType": "uint256",
          "name": "",
          "type": "uint256"
        }
      ],
      "stateMutability": "view",
      "type": "function"
    },
    {
      "inputs": [
        {
          "internalType": "contract Pool",
          "name": "pool",
          "type": "address"
        },
        {
          "internalType": "uint256",
          "name": "amount",
          "type": "uint256"
        }
      ],
      "name": "payBaseToken",
      "outputs": [],
      "stateMutability": "nonpayable",
      "type": "function"
    },
    {
      "inputs": [
        {
          "internalType": "contract Pool",
          "name": "pool",
          "type": "address"
        },
        {
          "internalType": "uint256",
          "name": "amount",
          "type": "uint256"
        }
      ],
      "name": "payToken",
      "outputs": [],
      "stateMutability": "nonpayable",
      "type": "function"
    },
    {
      "inputs": [
        {
          "internalType": "uint256",
          "name": "",
          "type": "uint256"
        }
      ],
      "name": "pools",
      "outputs": [
        {
          "internalType": "contract Pool",
          "name": "",
          "type": "address"
        }
      ],
      "stateMutability": "view",
      "type": "function"
    },
    {
      "inputs": [
        {
          "internalType": "contract Pool",
          "name": "pool",
          "type": "address"
        },
        {
          "internalType": "uint256",
          "name": "percentageToBurn",
          "type": "uint256"
        }
      ],
      "name": "removeLiquidity",
      "outputs": [],
      "stateMutability": "nonpayable",
      "type": "function"
    },
    {
      "inputs": [
        {
          "internalType": "contract Pool",
          "name": "pool",
          "type": "address"
        },
        {
          "internalType": "uint256",
          "name": "inputAmount",
          "type": "uint256"
        }
      ],
      "name": "sell",
      "outputs": [],
      "stateMutability": "nonpayable",
      "type": "function"
    },
    {
      "inputs": [
        {
          "internalType": "contract Pool",
          "name": "",
          "type": "address"
        }
      ],
      "name": "tokenBalances",
      "outputs": [
        {
          "internalType": "uint256",
          "name": "",
          "type": "uint256"
        }
      ],
      "stateMutability": "view",
      "type": "function"
    }
  ],
  "bytecode": "0x608060405234801561001057600080fd5b50604051612c84380380612c8483398101604081905261002f91610054565b600080546001600160a01b0319166001600160a01b0392909216919091179055610082565b600060208284031215610065578081fd5b81516001600160a01b038116811461007b578182fd5b9392505050565b612bf3806100916000396000f3fe60806040523480156200001157600080fd5b5060043610620000fd5760003560e01c8063ac4afa381162000097578063ce883cdb116200006e578063ce883cdb1462000250578063cff61aac1462000259578063dbcaef8b1462000270578063ea197eef146200028757600080fd5b8063ac4afa3814620001f2578063c75a6a3f1462000222578063cce7ec13146200023957600080fd5b80635668870011620000d8578063566887001462000168578063581a564d146200017f5780636c197ff514620001c4578063a201ccf614620001db57600080fd5b806310510ec11462000102578063248391ff146200011b578063523fba7f1462000132575b600080fd5b620001196200011336600462001551565b6200029e565b005b620001196200012c3660046200150c565b620003af565b6200015562000143366004620014ed565b60036020526000908152604090205481565b6040519081526020015b60405180910390f35b620001196200017936600462001551565b62000538565b620001ab62000190366004620014ed565b6002602052600090815260409020546001600160701b031681565b6040516001600160701b0390911681526020016200015f565b62000119620001d536600462001551565b620006ac565b62000119620001ec36600462001551565b6200081b565b62000209620002033660046200157f565b62000b5d565b6040516001600160a01b0390911681526020016200015f565b620001196200023336600462001551565b62000b88565b620001196200024a36600462001551565b62000bfd565b60015462000155565b620001196200026a36600462001455565b62000c4f565b620001196200028136600462001551565b62000dab565b620001196200029836600462001551565b62000e66565b60005a90506200032f3383856001600160a01b031663fc0c546a6040518163ffffffff1660e01b815260040160206040518083038186803b158015620002e357600080fd5b505afa158015620002f8573d6000803e3d6000fd5b505050506040513d601f19601f820116820180604052508101906200031e919062001436565b6001600160a01b0316919062000ed0565b6001600160a01b038316600090815260036020526040812080548492906200035990849062001741565b909155505060408051808201909152600b81527f706179546f6b656e2025730000000000000000000000000000000000000000006020820152620003aa905a620003a4908462001741565b62000f7b565b505050565b60005a6001600160a01b03851660009081526003602090815260408083205460029092528220549293509091620003f29187916001600160701b03168662000ff2565b905062000400858462000dab565b6001600160a01b03841660009081526002602090815260408083205460039092529091205462000446918691620001139183916001600160701b03909116908662000ff2565b6001600160a01b03851660009081526002602052604081208054839290620004799084906001600160701b031662001716565b82546101009290920a6001600160701b038181021990931691831602179091556001600160a01b038616600090815260026020526040812080548594509092620004c6918591166200168a565b92506101000a8154816001600160701b0302191690836001600160701b03160217905550620005316040518060400160405280600281526020017f25730000000000000000000000000000000000000000000000000000000000008152505a620003a4908562001741565b5050505050565b816001600160a01b03166340c10f1933620005e184866001600160a01b03166318160ddd6040518163ffffffff1660e01b815260040160206040518083038186803b1580156200058757600080fd5b505afa1580156200059c573d6000803e3d6000fd5b505050506040513d601f19601f82011682018060405250810190620005c2919062001598565b6001600160a01b038816600090815260036020526040902054620010cf565b6040517fffffffff0000000000000000000000000000000000000000000000000000000060e085901b1681526001600160a01b0390921660048301526024820152604401600060405180830381600087803b1580156200064057600080fd5b505af115801562000655573d6000803e3d6000fd5b5050506001600160a01b0383166000908152600260209081526040808320546003909252909120546200069c92508491620002339185916001600160701b031690620010cf565b620006a8828262000dab565b5050565b6001600160a01b03821660009081526003602090815260408083205460029092529091205462000703913391620006ef9186916001600160701b03168662000ff2565b6000546001600160a01b0316919062000ed0565b6001600160a01b03821660009081526002602052604081208054839290620007369084906001600160701b03166200168a565b92506101000a8154816001600160701b0302191690836001600160701b03160217905550620007e8333083856001600160a01b031663fc0c546a6040518163ffffffff1660e01b815260040160206040518083038186803b1580156200079b57600080fd5b505afa158015620007b0573d6000803e3d6000fd5b505050506040513d601f19601f82011682018060405250810190620007d6919062001436565b6001600160a01b0316929190620010f4565b6001600160a01b038216600090815260036020526040812080548392906200081290849062001741565b90915550505050565b6001600160a01b0382166000818152600260205260408082205490516370a0823160e01b8152336004820152919262000948926001600160701b0390921691620008cd91906370a082319060240160206040518083038186803b1580156200088257600080fd5b505afa15801562000897573d6000803e3d6000fd5b505050506040513d601f19601f82011682018060405250810190620008bd919062001598565b85670de0b6b3a7640000620010cf565b856001600160a01b03166318160ddd6040518163ffffffff1660e01b815260040160206040518083038186803b1580156200090757600080fd5b505afa1580156200091c573d6000803e3d6000fd5b505050506040513d601f19601f8201168201806040525081019062000942919062001598565b620010cf565b905062000956838262000e66565b6001600160a01b0383166000818152600360205260408082205490516370a0823160e01b8152336004820152919262000a3692620009fc91906370a082319060240160206040518083038186803b158015620009b157600080fd5b505afa158015620009c6573d6000803e3d6000fd5b505050506040513d601f19601f82011682018060405250810190620009ec919062001598565b86670de0b6b3a7640000620010cf565b866001600160a01b03166318160ddd6040518163ffffffff1660e01b815260040160206040518083038186803b1580156200090757600080fd5b905062000a4484826200029e565b6040516370a0823160e01b815233600482018190526001600160a01b03861691639dc29fac919062000adf9084906370a082319060240160206040518083038186803b15801562000a9457600080fd5b505afa15801562000aa9573d6000803e3d6000fd5b505050506040513d601f19601f8201168201806040525081019062000acf919062001598565b87670de0b6b3a7640000620010cf565b6040517fffffffff0000000000000000000000000000000000000000000000000000000060e085901b1681526001600160a01b0390921660048301526024820152604401600060405180830381600087803b15801562000b3e57600080fd5b505af115801562000b53573d6000803e3d6000fd5b5050505050505050565b6001818154811062000b6e57600080fd5b6000918252602090912001546001600160a01b0316905081565b60005462000ba2906001600160a01b0316333084620010f4565b6001600160a01b0382166000908152600260205260408120805483929062000bd59084906001600160701b03166200168a565b92506101000a8154816001600160701b0302191690836001600160701b031602179055505050565b6001600160a01b03821660009081526002602090815260408083205460039092529091205462000c43918491620001139183916001600160701b03909116908662000ff2565b620006a8828262000b88565b60008060009054906101000a90046001600160a01b03168787858560405162000c789062001377565b62000c88959493929190620015fd565b604051809103906000f08015801562000ca5573d6000803e3d6000fd5b50905062000cb4818662000b88565b62000cc0818562000dab565b6040517f40c10f19000000000000000000000000000000000000000000000000000000008152336004820152602481018590526001600160a01b038216906340c10f1990604401600060405180830381600087803b15801562000d2257600080fd5b505af115801562000d37573d6000803e3d6000fd5b50506001805480820182556000919091527fb10e2d527612073b26eecdfd717e6a320cf44b4afac2b0732d9fcbe2b7fa0cf60180547fffffffffffffffffffffffff0000000000000000000000000000000000000000166001600160a01b0394909416939093179092555050505050505050565b60005a905062000df1333084866001600160a01b031663fc0c546a6040518163ffffffff1660e01b815260040160206040518083038186803b1580156200079b57600080fd5b6001600160a01b0383166000908152600360205260408120805484929062000e1b908490620016b8565b909155505060408051808201909152600e81527f636861726765546f6b656e2025730000000000000000000000000000000000006020820152620003aa905a620003a4908462001741565b6001600160a01b0382166000908152600260205260408120805483929062000e999084906001600160701b031662001716565b82546001600160701b039182166101009390930a928302919092021990911617905550600054620006a8906001600160a01b031633835b6040516001600160a01b038316602482015260448101829052620003aa9084907fa9059cbb00000000000000000000000000000000000000000000000000000000906064015b60408051601f198184030181529190526020810180517bffffffffffffffffffffffffffffffffffffffffffffffffffffffff167fffffffff00000000000000000000000000000000000000000000000000000000909316929092179091526200114d565b620006a8828260405160240162000f9492919062001666565b60408051601f198184030181529190526020810180517bffffffffffffffffffffffffffffffffffffffffffffffffffffffff167f9710a9d0000000000000000000000000000000000000000000000000000000001790526200123d565b6000670de0b6b3a7640000856001600160a01b03166398118cb46040518163ffffffff1660e01b815260040160206040518083038186803b1580156200103757600080fd5b505afa1580156200104c573d6000803e3d6000fd5b505050506040513d601f19601f8201168201806040525081019062001072919062001598565b6200107e9084620016f4565b6200108a9190620016d3565b62001096908362001741565b620010a29085620016b8565b620010ae8486620016f4565b620010ba9190620016d3565b620010c6908462001741565b95945050505050565b600081620010de8486620016f4565b620010ea9190620016d3565b90505b9392505050565b6040516001600160a01b0380851660248301528316604482015260648101829052620011479085907f23b872dd000000000000000000000000000000000000000000000000000000009060840162000f16565b50505050565b6000620011a4826040518060400160405280602081526020017f5361666545524332303a206c6f772d6c6576656c2063616c6c206661696c6564815250856001600160a01b03166200125e9092919063ffffffff16565b805190915015620003aa5780806020019051810190620011c5919062001414565b620003aa5760405162461bcd60e51b815260206004820152602a60248201527f5361666545524332303a204552433230206f7065726174696f6e20646964206e60448201527f6f7420737563636565640000000000000000000000000000000000000000000060648201526084015b60405180910390fd5b80516a636f6e736f6c652e6c6f67602083016000808483855afa5050505050565b6060620010ea848460008585843b620012ba5760405162461bcd60e51b815260206004820152601d60248201527f416464726573733a2063616c6c20746f206e6f6e2d636f6e7472616374000000604482015260640162001234565b600080866001600160a01b03168587604051620012d89190620015df565b60006040518083038185875af1925050503d806000811462001317576040519150601f19603f3d011682016040523d82523d6000602084013e6200131c565b606091505b50915091506200132e82828662001339565b979650505050505050565b606083156200134a575081620010ed565b8251156200135b5782518084602001fd5b8160405162461bcd60e51b815260040162001234919062001651565b6113ee80620017d083390190565b600082601f83011262001396578081fd5b813567ffffffffffffffff80821115620013b457620013b4620017a0565b604051601f8301601f19908116603f01168101908282118183101715620013df57620013df620017a0565b81604052838152866020858801011115620013f8578485fd5b8360208701602083013792830160200193909352509392505050565b60006020828403121562001426578081fd5b81518015158114620010ed578182fd5b60006020828403121562001448578081fd5b8151620010ed81620017b6565b60008060008060008060c087890312156200146e578182fd5b86356200147b81620017b6565b9550602087013594506040870135935060608701359250608087013567ffffffffffffffff80821115620014ad578384fd5b620014bb8a838b0162001385565b935060a0890135915080821115620014d1578283fd5b50620014e089828a0162001385565b9150509295509295509295565b600060208284031215620014ff578081fd5b8135620010ed81620017b6565b60008060006060848603121562001521578283fd5b83356200152e81620017b6565b925060208401356200154081620017b6565b929592945050506040919091013590565b6000806040838503121562001564578182fd5b82356200157181620017b6565b946020939093013593505050565b60006020828403121562001591578081fd5b5035919050565b600060208284031215620015aa578081fd5b5051919050565b60008151808452620015cb8160208601602086016200175b565b601f01601f19169290920160200192915050565b60008251620015f38184602087016200175b565b9190910192915050565b60006001600160a01b03808816835280871660208401525084604083015260a060608301526200163160a0830185620015b1565b8281036080840152620016458185620015b1565b98975050505050505050565b602081526000620010ed6020830184620015b1565b6040815260006200167b6040830185620015b1565b90508260208301529392505050565b60006001600160701b03808316818516808303821115620016af57620016af6200178a565b01949350505050565b60008219821115620016ce57620016ce6200178a565b500190565b600082620016ef57634e487b7160e01b81526012600452602481fd5b500490565b60008160001904831182151516156200171157620017116200178a565b500290565b60006001600160701b03838116908316818110156200173957620017396200178a565b039392505050565b6000828210156200175657620017566200178a565b500390565b60005b83811015620017785781810151838201526020016200175e565b83811115620011475750506000910152565b634e487b7160e01b600052601160045260246000fd5b634e487b7160e01b600052604160045260246000fd5b6001600160a01b0381168114620017cc57600080fd5b5056fe60a06040523480156200001157600080fd5b50604051620013ee380380620013ee833981016040819052620000349162000223565b8151829082906200004d906003906020850190620000ad565b50805162000063906004906020840190620000ad565b5050600580546001600160a01b03199081163317909155600680546001600160a01b03988916908316179055600780549690971695169490941790945550608052506200030d9050565b828054620000bb90620002ba565b90600052602060002090601f016020900481019282620000df57600085556200012a565b82601f10620000fa57805160ff19168380011785556200012a565b828001600101855582156200012a579182015b828111156200012a5782518255916020019190600101906200010d565b50620001389291506200013c565b5090565b5b808211156200013857600081556001016200013d565b80516001600160a01b03811681146200016b57600080fd5b919050565b600082601f83011262000181578081fd5b81516001600160401b03808211156200019e576200019e620002f7565b604051601f8301601f19908116603f01168101908282118183101715620001c957620001c9620002f7565b81604052838152602092508683858801011115620001e5578485fd5b8491505b83821015620002085785820183015181830184015290820190620001e9565b838211156200021957848385830101525b9695505050505050565b600080600080600060a086880312156200023b578081fd5b620002468662000153565b9450620002566020870162000153565b6040870151606088015191955093506001600160401b03808211156200027a578283fd5b6200028889838a0162000170565b935060808801519150808211156200029e578283fd5b50620002ad8882890162000170565b9150509295509295909350565b600181811c90821680620002cf57607f821691505b60208210811415620002f157634e487b7160e01b600052602260045260246000fd5b50919050565b634e487b7160e01b600052604160045260246000fd5b6080516110c56200032960003960006101f301526110c56000f3fe608060405234801561001057600080fd5b506004361061011b5760003560e01c806395d89b41116100b2578063a9059cbb11610081578063d1660f9911610066578063d1660f9914610279578063dd62ed3e1461028c578063fc0c546a146102c557600080fd5b8063a9059cbb1461023b578063c55dae631461024e57600080fd5b806395d89b41146101e657806398118cb4146101ee5780639dc29fac14610215578063a457c2d71461022857600080fd5b8063313ce567116100ee578063313ce56714610186578063395093511461019557806340c10f19146101a857806370a08231146101bd57600080fd5b806306fdde0314610120578063095ea7b31461013e57806318160ddd1461016157806323b872dd14610173575b600080fd5b6101286102d8565b6040516101359190610f94565b60405180910390f35b61015161014c366004610f19565b61036a565b6040519015158152602001610135565b6002545b604051908152602001610135565b610151610181366004610ed9565b610380565b60405160128152602001610135565b6101516101a3366004610f19565b61044d565b6101bb6101b6366004610f19565b610484565b005b6101656101cb366004610e85565b6001600160a01b031660009081526020819052604090205490565b6101286104a9565b6101657f000000000000000000000000000000000000000000000000000000000000000081565b6101bb610223366004610f19565b6104b8565b610151610236366004610f19565b6104d9565b610151610249366004610f19565b61058c565b600654610261906001600160a01b031681565b6040516001600160a01b039091168152602001610135565b6101bb610287366004610f64565b610599565b61016561029a366004610ea1565b6001600160a01b03918216600090815260016020908152604080832093909416825291909152205490565b600754610261906001600160a01b031681565b6060600380546102e790611026565b80601f016020809104026020016040519081016040528092919081815260200182805461031390611026565b80156103605780601f1061033557610100808354040283529160200191610360565b820191906000526020600020905b81548152906001019060200180831161034357829003601f168201915b5050505050905090565b60006103773384846105c9565b50600192915050565b600061038d848484610722565b6001600160a01b03841660009081526001602090815260408083203384529091529020548281101561042c5760405162461bcd60e51b815260206004820152602860248201527f45524332303a207472616e7366657220616d6f756e742065786365656473206160448201527f6c6c6f77616e636500000000000000000000000000000000000000000000000060648201526084015b60405180910390fd5b610440853361043b8685610fdf565b6105c9565b60019150505b9392505050565b3360008181526001602090815260408083206001600160a01b0387168452909152812054909161037791859061043b908690610fc7565b6005546001600160a01b0316331461049b57600080fd5b6104a58282610943565b5050565b6060600480546102e790611026565b6005546001600160a01b031633146104cf57600080fd5b6104a58282610a22565b3360009081526001602090815260408083206001600160a01b0386168452909152812054828110156105735760405162461bcd60e51b815260206004820152602560248201527f45524332303a2064656372656173656420616c6c6f77616e63652062656c6f7760448201527f207a65726f0000000000000000000000000000000000000000000000000000006064820152608401610423565b610582338561043b8685610fdf565b5060019392505050565b6000610377338484610722565b6005546001600160a01b031633146105b057600080fd5b6105c46001600160a01b0384168383610ba8565b505050565b6001600160a01b0383166106445760405162461bcd60e51b8152602060048201526024808201527f45524332303a20617070726f76652066726f6d20746865207a65726f2061646460448201527f72657373000000000000000000000000000000000000000000000000000000006064820152608401610423565b6001600160a01b0382166106c05760405162461bcd60e51b815260206004820152602260248201527f45524332303a20617070726f766520746f20746865207a65726f20616464726560448201527f73730000000000000000000000000000000000000000000000000000000000006064820152608401610423565b6001600160a01b0383811660008181526001602090815260408083209487168084529482529182902085905590518481527f8c5be1e5ebec7d5bd14f71427d1e84f3dd0314c0f7b2291e5b200ac8c7c3b92591015b60405180910390a3505050565b6001600160a01b03831661079e5760405162461bcd60e51b815260206004820152602560248201527f45524332303a207472616e736665722066726f6d20746865207a65726f20616460448201527f64726573730000000000000000000000000000000000000000000000000000006064820152608401610423565b6001600160a01b03821661081a5760405162461bcd60e51b815260206004820152602360248201527f45524332303a207472616e7366657220746f20746865207a65726f206164647260448201527f65737300000000000000000000000000000000000000000000000000000000006064820152608401610423565b6001600160a01b038316600090815260208190526040902054818110156108a95760405162461bcd60e51b815260206004820152602660248201527f45524332303a207472616e7366657220616d6f756e742065786365656473206260448201527f616c616e636500000000000000000000000000000000000000000000000000006064820152608401610423565b6108b38282610fdf565b6001600160a01b0380861660009081526020819052604080822093909355908516815290812080548492906108e9908490610fc7565b92505081905550826001600160a01b0316846001600160a01b03167fddf252ad1be2c89b69c2b068fc378daa952ba7f163c4a11628f55a4df523b3ef8460405161093591815260200190565b60405180910390a350505050565b6001600160a01b0382166109995760405162461bcd60e51b815260206004820152601f60248201527f45524332303a206d696e7420746f20746865207a65726f2061646472657373006044820152606401610423565b80600260008282546109ab9190610fc7565b90915550506001600160a01b038216600090815260208190526040812080548392906109d8908490610fc7565b90915550506040518181526001600160a01b038316906000907fddf252ad1be2c89b69c2b068fc378daa952ba7f163c4a11628f55a4df523b3ef9060200160405180910390a35050565b6001600160a01b038216610a9e5760405162461bcd60e51b815260206004820152602160248201527f45524332303a206275726e2066726f6d20746865207a65726f2061646472657360448201527f73000000000000000000000000000000000000000000000000000000000000006064820152608401610423565b6001600160a01b03821660009081526020819052604090205481811015610b2d5760405162461bcd60e51b815260206004820152602260248201527f45524332303a206275726e20616d6f756e7420657863656564732062616c616e60448201527f63650000000000000000000000000000000000000000000000000000000000006064820152608401610423565b610b378282610fdf565b6001600160a01b03841660009081526020819052604081209190915560028054849290610b65908490610fdf565b90915550506040518281526000906001600160a01b038516907fddf252ad1be2c89b69c2b068fc378daa952ba7f163c4a11628f55a4df523b3ef90602001610715565b604080516001600160a01b03848116602483015260448083018590528351808403909101815260649092018352602080830180517bffffffffffffffffffffffffffffffffffffffffffffffffffffffff167fa9059cbb0000000000000000000000000000000000000000000000000000000017905283518085019094528084527f5361666545524332303a206c6f772d6c6576656c2063616c6c206661696c6564908401526105c492869291600091610c66918516908490610cf6565b8051909150156105c45780806020019051810190610c849190610f44565b6105c45760405162461bcd60e51b815260206004820152602a60248201527f5361666545524332303a204552433230206f7065726174696f6e20646964206e60448201527f6f742073756363656564000000000000000000000000000000000000000000006064820152608401610423565b6060610d058484600085610d0d565b949350505050565b606082471015610d855760405162461bcd60e51b815260206004820152602660248201527f416464726573733a20696e73756666696369656e742062616c616e636520666f60448201527f722063616c6c00000000000000000000000000000000000000000000000000006064820152608401610423565b843b610dd35760405162461bcd60e51b815260206004820152601d60248201527f416464726573733a2063616c6c20746f206e6f6e2d636f6e74726163740000006044820152606401610423565b600080866001600160a01b03168587604051610def9190610f78565b60006040518083038185875af1925050503d8060008114610e2c576040519150601f19603f3d011682016040523d82523d6000602084013e610e31565b606091505b5091509150610e41828286610e4c565b979650505050505050565b60608315610e5b575081610446565b825115610e6b5782518084602001fd5b8160405162461bcd60e51b81526004016104239190610f94565b600060208284031215610e96578081fd5b813561044681611077565b60008060408385031215610eb3578081fd5b8235610ebe81611077565b91506020830135610ece81611077565b809150509250929050565b600080600060608486031215610eed578081fd5b8335610ef881611077565b92506020840135610f0881611077565b929592945050506040919091013590565b60008060408385031215610f2b578182fd5b8235610f3681611077565b946020939093013593505050565b600060208284031215610f55578081fd5b81518015158114610446578182fd5b600080600060608486031215610eed578283fd5b60008251610f8a818460208701610ff6565b9190910192915050565b6020815260008251806020840152610fb3816040850160208701610ff6565b601f01601f19169190910160400192915050565b60008219821115610fda57610fda611061565b500190565b600082821015610ff157610ff1611061565b500390565b60005b83811015611011578181015183820152602001610ff9565b83811115611020576000848401525b50505050565b600181811c9082168061103a57607f821691505b6020821081141561105b57634e487b7160e01b600052602260045260246000fd5b50919050565b634e487b7160e01b600052601160045260246000fd5b6001600160a01b038116811461108c57600080fd5b5056fea2646970667358221220dd3581a0d296f3369cd2f3153fda2c9989a55507004d407d6bf58bdd0b56cb6164736f6c63430008040033a2646970667358221220689b1ff2442ee9906f49be4aeefb62689c870ff19b72b8dff51edce38326418364736f6c63430008040033",
  "linkReferences": {},
  "deployedLinkReferences": {}
}