{
  "_format": "hh-sol-artifact-1",
  "contractName": "YieldFarmablePool",
  "sourceName": "contracts/YieldFarmablePool.sol",
  "abi": [
    {
      "inputs": [
        {
          "internalType": "contract IERC20",
          "name": "_baseToken",
          "type": "address"
        },
        {
          "internalType": "contract IERC20",
          "name": "_token",
          "type": "address"
        },
        {
          "internalType": "uint256",
          "name": "_liquidityFee",
          "type": "uint256"
        },
        {
          "internalType": "string",
          "name": "name",
          "type": "string"
        },
        {
          "internalType": "string",
          "name": "symbol",
          "type": "string"
        },
        {
          "internalType": "contract Issuable",
          "name": "rewardToken",
          "type": "address"
        }
      ],
      "stateMutability": "nonpayable",
      "type": "constructor"
    },
    {
      "anonymous": false,
      "inputs": [
        {
          "indexed": true,
          "internalType": "address",
          "name": "owner",
          "type": "address"
        },
        {
          "indexed": true,
          "internalType": "address",
          "name": "spender",
          "type": "address"
        },
        {
          "indexed": false,
          "internalType": "uint256",
          "name": "value",
          "type": "uint256"
        }
      ],
      "name": "Approval",
      "type": "event"
    },
    {
      "anonymous": false,
      "inputs": [
        {
          "indexed": true,
          "internalType": "address",
          "name": "from",
          "type": "address"
        },
        {
          "indexed": true,
          "internalType": "address",
          "name": "to",
          "type": "address"
        },
        {
          "indexed": false,
          "internalType": "uint256",
          "name": "value",
          "type": "uint256"
        }
      ],
      "name": "Transfer",
      "type": "event"
    },
    {
      "inputs": [],
      "name": "PRECISION",
      "outputs": [
        {
          "internalType": "uint256",
          "name": "",
          "type": "uint256"
        }
      ],
      "stateMutability": "view",
      "type": "function"
    },
    {
      "inputs": [
        {
          "internalType": "address",
          "name": "owner",
          "type": "address"
        },
        {
          "internalType": "address",
          "name": "spender",
          "type": "address"
        }
      ],
      "name": "allowance",
      "outputs": [
        {
          "internalType": "uint256",
          "name": "",
          "type": "uint256"
        }
      ],
      "stateMutability": "view",
      "type": "function"
    },
    {
      "inputs": [
        {
          "internalType": "address",
          "name": "spender",
          "type": "address"
        },
        {
          "internalType": "uint256",
          "name": "amount",
          "type": "uint256"
        }
      ],
      "name": "approve",
      "outputs": [
        {
          "internalType": "bool",
          "name": "",
          "type": "bool"
        }
      ],
      "stateMutability": "nonpayable",
      "type": "function"
    },
    {
      "inputs": [
        {
          "internalType": "address",
          "name": "account",
          "type": "address"
        }
      ],
      "name": "balanceOf",
      "outputs": [
        {
          "internalType": "uint256",
          "name": "",
          "type": "uint256"
        }
      ],
      "stateMutability": "view",
      "type": "function"
    },
    {
      "inputs": [],
      "name": "baseToken",
      "outputs": [
        {
          "internalType": "contract IERC20",
          "name": "",
          "type": "address"
        }
      ],
      "stateMutability": "view",
      "type": "function"
    },
    {
      "inputs": [
        {
          "internalType": "address",
          "name": "who",
          "type": "address"
        },
        {
          "internalType": "uint256",
          "name": "amount",
          "type": "uint256"
        }
      ],
      "name": "burn",
      "outputs": [],
      "stateMutability": "nonpayable",
      "type": "function"
    },
    {
      "inputs": [],
      "name": "decimals",
      "outputs": [
        {
          "internalType": "uint8",
          "name": "",
          "type": "uint8"
        }
      ],
      "stateMutability": "view",
      "type": "function"
    },
    {
      "inputs": [
        {
          "internalType": "address",
          "name": "spender",
          "type": "address"
        },
        {
          "internalType": "uint256",
          "name": "subtractedValue",
          "type": "uint256"
        }
      ],
      "name": "decreaseAllowance",
      "outputs": [
        {
          "internalType": "bool",
          "name": "",
          "type": "bool"
        }
      ],
      "stateMutability": "nonpayable",
      "type": "function"
    },
    {
      "inputs": [
        {
          "internalType": "address",
          "name": "owner",
          "type": "address"
        }
      ],
      "name": "getPendingYield",
      "outputs": [
        {
          "internalType": "uint256",
          "name": "",
          "type": "uint256"
        }
      ],
      "stateMutability": "view",
      "type": "function"
    },
    {
      "inputs": [],
      "name": "harvest",
      "outputs": [],
      "stateMutability": "nonpayable",
      "type": "function"
    },
    {
      "inputs": [
        {
          "internalType": "address",
          "name": "spender",
          "type": "address"
        },
        {
          "internalType": "uint256",
          "name": "addedValue",
          "type": "uint256"
        }
      ],
      "name": "increaseAllowance",
      "outputs": [
        {
          "internalType": "bool",
          "name": "",
          "type": "bool"
        }
      ],
      "stateMutability": "nonpayable",
      "type": "function"
    },
    {
      "inputs": [],
      "name": "isFarmable",
      "outputs": [
        {
          "internalType": "bool",
          "name": "",
          "type": "bool"
        }
      ],
      "stateMutability": "pure",
      "type": "function"
    },
    {
      "inputs": [],
      "name": "lastCheckpoint",
      "outputs": [
        {
          "internalType": "uint256",
          "name": "",
          "type": "uint256"
        }
      ],
      "stateMutability": "view",
      "type": "function"
    },
    {
      "inputs": [],
      "name": "liquidityFee",
      "outputs": [
        {
          "internalType": "uint256",
          "name": "",
          "type": "uint256"
        }
      ],
      "stateMutability": "view",
      "type": "function"
    },
    {
      "inputs": [
        {
          "internalType": "address",
          "name": "to",
          "type": "address"
        },
        {
          "internalType": "uint256",
          "name": "amount",
          "type": "uint256"
        }
      ],
      "name": "mint",
      "outputs": [],
      "stateMutability": "nonpayable",
      "type": "function"
    },
    {
      "inputs": [],
      "name": "name",
      "outputs": [
        {
          "internalType": "string",
          "name": "",
          "type": "string"
        }
      ],
      "stateMutability": "view",
      "type": "function"
    },
    {
      "inputs": [],
      "name": "rewardToken",
      "outputs": [
        {
          "internalType": "contract Issuable",
          "name": "",
          "type": "address"
        }
      ],
      "stateMutability": "view",
      "type": "function"
    },
    {
      "inputs": [
        {
          "internalType": "contract IERC20",
          "name": "_token",
          "type": "address"
        },
        {
          "internalType": "address",
          "name": "sender",
          "type": "address"
        },
        {
          "internalType": "uint256",
          "name": "amount",
          "type": "uint256"
        }
      ],
      "name": "safeTransfer",
      "outputs": [],
      "stateMutability": "nonpayable",
      "type": "function"
    },
    {
      "inputs": [],
      "name": "saveCheckpoint",
      "outputs": [],
      "stateMutability": "nonpayable",
      "type": "function"
    },
    {
      "inputs": [],
      "name": "secondsSinceLastCheckpoint",
      "outputs": [
        {
          "internalType": "uint256",
          "name": "",
          "type": "uint256"
        }
      ],
      "stateMutability": "view",
      "type": "function"
    },
    {
      "inputs": [],
      "name": "symbol",
      "outputs": [
        {
          "internalType": "string",
          "name": "",
          "type": "string"
        }
      ],
      "stateMutability": "view",
      "type": "function"
    },
    {
      "inputs": [],
      "name": "token",
      "outputs": [
        {
          "internalType": "contract IERC20",
          "name": "",
          "type": "address"
        }
      ],
      "stateMutability": "view",
      "type": "function"
    },
    {
      "inputs": [],
      "name": "totalSupply",
      "outputs": [
        {
          "internalType": "uint256",
          "name": "",
          "type": "uint256"
        }
      ],
      "stateMutability": "view",
      "type": "function"
    },
    {
      "inputs": [],
      "name": "totalYieldPerToken",
      "outputs": [
        {
          "internalType": "uint256",
          "name": "",
          "type": "uint256"
        }
      ],
      "stateMutability": "view",
      "type": "function"
    },
    {
      "inputs": [
        {
          "internalType": "address",
          "name": "recipient",
          "type": "address"
        },
        {
          "internalType": "uint256",
          "name": "amount",
          "type": "uint256"
        }
      ],
      "name": "transfer",
      "outputs": [
        {
          "internalType": "bool",
          "name": "",
          "type": "bool"
        }
      ],
      "stateMutability": "nonpayable",
      "type": "function"
    },
    {
      "inputs": [
        {
          "internalType": "address",
          "name": "sender",
          "type": "address"
        },
        {
          "internalType": "address",
          "name": "recipient",
          "type": "address"
        },
        {
          "internalType": "uint256",
          "name": "amount",
          "type": "uint256"
        }
      ],
      "name": "transferFrom",
      "outputs": [
        {
          "internalType": "bool",
          "name": "",
          "type": "bool"
        }
      ],
      "stateMutability": "nonpayable",
      "type": "function"
    },
    {
      "inputs": [
        {
          "internalType": "address",
          "name": "",
          "type": "address"
        }
      ],
      "name": "yieldHarvested",
      "outputs": [
        {
          "internalType": "uint256",
          "name": "",
          "type": "uint256"
        }
      ],
      "stateMutability": "view",
      "type": "function"
    },
    {
      "inputs": [],
      "name": "yieldPerSecond",
      "outputs": [
        {
          "internalType": "uint256",
          "name": "",
          "type": "uint256"
        }
      ],
      "stateMutability": "view",
      "type": "function"
    }
  ],
  "bytecode": "0x60a06040523480156200001157600080fd5b506040516200177b3803806200177b833981016040819052620000349162000226565b8585858585858282816003908051906020019062000054929190620000cd565b5080516200006a906004906020840190620000cd565b50504260075550600580546001600160a01b03199081166001600160a01b03938416179091556009805433908316179055600a8054821697831697909717909655600b805490961694169390931790935560805250620003439650505050505050565b828054620000db90620002d7565b90600052602060002090601f016020900481019282620000ff57600085556200014a565b82601f106200011a57805160ff19168380011785556200014a565b828001600101855582156200014a579182015b828111156200014a5782518255916020019190600101906200012d565b50620001589291506200015c565b5090565b5b808211156200015857600081556001016200015d565b600082601f83011262000184578081fd5b81516001600160401b0380821115620001a157620001a162000314565b604051601f8301601f19908116603f01168101908282118183101715620001cc57620001cc62000314565b81604052838152602092508683858801011115620001e8578485fd5b8491505b838210156200020b5785820183015181830184015290820190620001ec565b838211156200021c57848385830101525b9695505050505050565b60008060008060008060c087890312156200023f578182fd5b86516200024c816200032a565b60208801519096506200025f816200032a565b6040880151606089015191965094506001600160401b038082111562000283578384fd5b620002918a838b0162000173565b94506080890151915080821115620002a7578384fd5b50620002b689828a0162000173565b92505060a0870151620002c9816200032a565b809150509295509295509295565b600181811c90821680620002ec57607f821691505b602082108114156200030e57634e487b7160e01b600052602260045260246000fd5b50919050565b634e487b7160e01b600052604160045260246000fd5b6001600160a01b03811681146200034057600080fd5b50565b60805161141c6200035f60003960006102f4015261141c6000f3fe608060405234801561001057600080fd5b50600436106101c45760003560e01c806395d89b41116100f9578063cc15f53811610097578063dd62ed3e11610071578063dd62ed3e146103b0578063f05c09b3146103e9578063f7c618c1146103f0578063fc0c546a1461040357600080fd5b8063cc15f53814610386578063d1660f9914610394578063d32e81a5146103a757600080fd5b8063a457c2d7116100d3578063a457c2d714610329578063a9059cbb1461033c578063aaf5eb681461034f578063c55dae631461035b57600080fd5b806395d89b41146102e757806398118cb4146102ef5780639dc29fac1461031657600080fd5b806340c10f19116101665780636484c4c6116101405780636484c4c61461028d57806370a08231146102955780637e0e5db5146102be57806393920696146102de57600080fd5b806340c10f191461025d5780634641257d14610272578063537bb1371461027a57600080fd5b806318160ddd116101a257806318160ddd1461022057806323b872dd14610228578063313ce5671461023b578063395093511461024a57600080fd5b806306fdde03146101c9578063095ea7b3146101e75780630ca9680d1461020a575b600080fd5b6101d1610416565b6040516101de91906112ac565b60405180910390f35b6101fa6101f5366004611231565b6104a8565b60405190151581526020016101de565b6102126104be565b6040519081526020016101de565b600254610212565b6101fa6102363660046111f1565b6104d3565b604051601281526020016101de565b6101fa610258366004611231565b6105a0565b61027061026b366004611231565b6105d7565b005b6102706105e5565b61021261028836600461119d565b6106a2565b610270610773565b6102126102a336600461119d565b6001600160a01b031660009081526020819052604090205490565b6102126102cc36600461119d565b60086020526000908152604090205481565b61021260065481565b6101d16107d8565b6102127f000000000000000000000000000000000000000000000000000000000000000081565b610270610324366004611231565b6107e7565b6101fa610337366004611231565b6107f1565b6101fa61034a366004611231565b6108a4565b61021264e8d4a5100081565b600a5461036e906001600160a01b031681565b6040516001600160a01b0390911681526020016101de565b670de0b6b3a7640000610212565b6102706103a236600461127c565b6108b1565b61021260075481565b6102126103be3660046111b9565b6001600160a01b03918216600090815260016020908152604080832093909416825291909152205490565b60016101fa565b60055461036e906001600160a01b031681565b600b5461036e906001600160a01b031681565b6060600380546104259061137d565b80601f01602080910402602001604051908101604052809291908181526020018280546104519061137d565b801561049e5780601f106104735761010080835404028352916020019161049e565b820191906000526020600020905b81548152906001019060200180831161048157829003601f168201915b5050505050905090565b60006104b53384846108e1565b50600192915050565b6000600754426104ce9190611336565b905090565b60006104e0848484610a3a565b6001600160a01b03841660009081526001602090815260408083203384529091529020548281101561057f5760405162461bcd60e51b815260206004820152602860248201527f45524332303a207472616e7366657220616d6f756e742065786365656473206160448201527f6c6c6f77616e636500000000000000000000000000000000000000000000000060648201526084015b60405180910390fd5b610593853361058e8685611336565b6108e1565b60019150505b9392505050565b3360008181526001602090815260408083206001600160a01b038716845290915281205490916104b591859061058e9086906112df565b6105e18282610c5b565b5050565b6105ed610773565b60006105f8336106a2565b6005546040517f40c10f19000000000000000000000000000000000000000000000000000000008152336004820152602481018390529192506001600160a01b0316906340c10f1990604401600060405180830381600087803b15801561065e57600080fd5b505af1158015610672573d6000803e3d6000fd5b505033600090815260086020526040812080548594509092506106969084906112df565b90915550504260075550565b60006106ad60025490565b6106b957506000919050565b6001600160a01b038216600090815260086020526040902054600254670de0b6b3a76400006106e66104be565b6001600160a01b0386166000908152602081905260409020546107099190611317565b6107139190611317565b61071d91906112f7565b64e8d4a51000600654610745866001600160a01b031660009081526020819052604090205490565b61074f9190611317565b61075991906112f7565b61076391906112df565b61076d9190611336565b92915050565b600061077e60025490565b11156107d65760025464e8d4a510006107956104be565b6107a790670de0b6b3a7640000611317565b6107b19190611317565b6107bb91906112f7565b600660008282546107cc91906112df565b9091555050426007555b565b6060600480546104259061137d565b6105e18282610d3a565b3360009081526001602090815260408083206001600160a01b03861684529091528120548281101561088b5760405162461bcd60e51b815260206004820152602560248201527f45524332303a2064656372656173656420616c6c6f77616e63652062656c6f7760448201527f207a65726f0000000000000000000000000000000000000000000000000000006064820152608401610576565b61089a338561058e8685611336565b5060019392505050565b60006104b5338484610a3a565b6009546001600160a01b031633146108c857600080fd5b6108dc6001600160a01b0384168383610ec0565b505050565b6001600160a01b03831661095c5760405162461bcd60e51b8152602060048201526024808201527f45524332303a20617070726f76652066726f6d20746865207a65726f2061646460448201527f72657373000000000000000000000000000000000000000000000000000000006064820152608401610576565b6001600160a01b0382166109d85760405162461bcd60e51b815260206004820152602260248201527f45524332303a20617070726f766520746f20746865207a65726f20616464726560448201527f73730000000000000000000000000000000000000000000000000000000000006064820152608401610576565b6001600160a01b0383811660008181526001602090815260408083209487168084529482529182902085905590518481527f8c5be1e5ebec7d5bd14f71427d1e84f3dd0314c0f7b2291e5b200ac8c7c3b92591015b60405180910390a3505050565b6001600160a01b038316610ab65760405162461bcd60e51b815260206004820152602560248201527f45524332303a207472616e736665722066726f6d20746865207a65726f20616460448201527f64726573730000000000000000000000000000000000000000000000000000006064820152608401610576565b6001600160a01b038216610b325760405162461bcd60e51b815260206004820152602360248201527f45524332303a207472616e7366657220746f20746865207a65726f206164647260448201527f65737300000000000000000000000000000000000000000000000000000000006064820152608401610576565b6001600160a01b03831660009081526020819052604090205481811015610bc15760405162461bcd60e51b815260206004820152602660248201527f45524332303a207472616e7366657220616d6f756e742065786365656473206260448201527f616c616e636500000000000000000000000000000000000000000000000000006064820152608401610576565b610bcb8282611336565b6001600160a01b038086166000908152602081905260408082209390935590851681529081208054849290610c019084906112df565b92505081905550826001600160a01b0316846001600160a01b03167fddf252ad1be2c89b69c2b068fc378daa952ba7f163c4a11628f55a4df523b3ef84604051610c4d91815260200190565b60405180910390a350505050565b6001600160a01b038216610cb15760405162461bcd60e51b815260206004820152601f60248201527f45524332303a206d696e7420746f20746865207a65726f2061646472657373006044820152606401610576565b8060026000828254610cc391906112df565b90915550506001600160a01b03821660009081526020819052604081208054839290610cf09084906112df565b90915550506040518181526001600160a01b038316906000907fddf252ad1be2c89b69c2b068fc378daa952ba7f163c4a11628f55a4df523b3ef9060200160405180910390a35050565b6001600160a01b038216610db65760405162461bcd60e51b815260206004820152602160248201527f45524332303a206275726e2066726f6d20746865207a65726f2061646472657360448201527f73000000000000000000000000000000000000000000000000000000000000006064820152608401610576565b6001600160a01b03821660009081526020819052604090205481811015610e455760405162461bcd60e51b815260206004820152602260248201527f45524332303a206275726e20616d6f756e7420657863656564732062616c616e60448201527f63650000000000000000000000000000000000000000000000000000000000006064820152608401610576565b610e4f8282611336565b6001600160a01b03841660009081526020819052604081209190915560028054849290610e7d908490611336565b90915550506040518281526000906001600160a01b038516907fddf252ad1be2c89b69c2b068fc378daa952ba7f163c4a11628f55a4df523b3ef90602001610a2d565b604080516001600160a01b03848116602483015260448083018590528351808403909101815260649092018352602080830180517bffffffffffffffffffffffffffffffffffffffffffffffffffffffff167fa9059cbb0000000000000000000000000000000000000000000000000000000017905283518085019094528084527f5361666545524332303a206c6f772d6c6576656c2063616c6c206661696c6564908401526108dc92869291600091610f7e91851690849061100e565b8051909150156108dc5780806020019051810190610f9c919061125c565b6108dc5760405162461bcd60e51b815260206004820152602a60248201527f5361666545524332303a204552433230206f7065726174696f6e20646964206e60448201527f6f742073756363656564000000000000000000000000000000000000000000006064820152608401610576565b606061101d8484600085611025565b949350505050565b60608247101561109d5760405162461bcd60e51b815260206004820152602660248201527f416464726573733a20696e73756666696369656e742062616c616e636520666f60448201527f722063616c6c00000000000000000000000000000000000000000000000000006064820152608401610576565b843b6110eb5760405162461bcd60e51b815260206004820152601d60248201527f416464726573733a2063616c6c20746f206e6f6e2d636f6e74726163740000006044820152606401610576565b600080866001600160a01b031685876040516111079190611290565b60006040518083038185875af1925050503d8060008114611144576040519150601f19603f3d011682016040523d82523d6000602084013e611149565b606091505b5091509150611159828286611164565b979650505050505050565b60608315611173575081610599565b8251156111835782518084602001fd5b8160405162461bcd60e51b815260040161057691906112ac565b6000602082840312156111ae578081fd5b8135610599816113ce565b600080604083850312156111cb578081fd5b82356111d6816113ce565b915060208301356111e6816113ce565b809150509250929050565b600080600060608486031215611205578081fd5b8335611210816113ce565b92506020840135611220816113ce565b929592945050506040919091013590565b60008060408385031215611243578182fd5b823561124e816113ce565b946020939093013593505050565b60006020828403121561126d578081fd5b81518015158114610599578182fd5b600080600060608486031215611205578283fd5b600082516112a281846020870161134d565b9190910192915050565b60208152600082518060208401526112cb81604085016020870161134d565b601f01601f19169190910160400192915050565b600082198211156112f2576112f26113b8565b500190565b60008261131257634e487b7160e01b81526012600452602481fd5b500490565b6000816000190483118215151615611331576113316113b8565b500290565b600082821015611348576113486113b8565b500390565b60005b83811015611368578181015183820152602001611350565b83811115611377576000848401525b50505050565b600181811c9082168061139157607f821691505b602082108114156113b257634e487b7160e01b600052602260045260246000fd5b50919050565b634e487b7160e01b600052601160045260246000fd5b6001600160a01b03811681146113e357600080fd5b5056fea26469706673582212201d7e99b9eca4ed0f996da3cef6d2589215385329b9e63a0c16137e3d3f21ac1164736f6c63430008040033",
  "linkReferences": {},
  "deployedLinkReferences": {}
}